{
  "contractName": "Multiswap",
  "abi": [
    {
      "inputs": [],
      "stateMutability": "nonpayable",
      "type": "constructor"
    },
    {
      "stateMutability": "payable",
      "type": "fallback"
    },
    {
      "stateMutability": "payable",
      "type": "receive"
    },
    {
      "inputs": [
        {
          "internalType": "address[]",
          "name": "_tokens",
          "type": "address[]"
        },
        {
          "internalType": "uint256[]",
          "name": "_percent",
          "type": "uint256[]"
        },
        {
          "internalType": "uint256[]",
          "name": "_slippage",
          "type": "uint256[]"
        },
        {
          "internalType": "uint256",
          "name": "_total",
          "type": "uint256"
        }
      ],
      "name": "checkOutputsETH",
      "outputs": [
        {
          "internalType": "address[]",
          "name": "",
          "type": "address[]"
        },
        {
          "internalType": "uint256[]",
          "name": "",
          "type": "uint256[]"
        },
        {
          "internalType": "uint256",
          "name": "",
          "type": "uint256"
        }
      ],
      "stateMutability": "view",
      "type": "function"
    },
    {
      "inputs": [
        {
          "internalType": "address[]",
          "name": "_tokens",
          "type": "address[]"
        },
        {
          "internalType": "uint256[]",
          "name": "_percent",
          "type": "uint256[]"
        },
        {
          "internalType": "uint256[]",
          "name": "_slippage",
          "type": "uint256[]"
        },
        {
          "internalType": "address",
          "name": "_base",
          "type": "address"
        },
        {
          "internalType": "uint256",
          "name": "_total",
          "type": "uint256"
        }
      ],
      "name": "checkOutputsToken",
      "outputs": [
        {
          "internalType": "address[]",
          "name": "",
          "type": "address[]"
        },
        {
          "internalType": "uint256[]",
          "name": "",
          "type": "uint256[]"
        }
      ],
      "stateMutability": "view",
      "type": "function"
    },
    {
      "inputs": [
        {
          "internalType": "address",
          "name": "_token",
          "type": "address"
        },
        {
          "internalType": "uint256",
          "name": "_amount",
          "type": "uint256"
        },
        {
          "internalType": "uint256",
          "name": "_slippage",
          "type": "uint256"
        }
      ],
      "name": "checkTokenValueETH",
      "outputs": [
        {
          "internalType": "uint256",
          "name": "",
          "type": "uint256"
        }
      ],
      "stateMutability": "view",
      "type": "function"
    },
    {
      "inputs": [
        {
          "internalType": "address[]",
          "name": "_tokens",
          "type": "address[]"
        },
        {
          "internalType": "uint256[]",
          "name": "_amounts",
          "type": "uint256[]"
        },
        {
          "internalType": "uint256[]",
          "name": "_slippage",
          "type": "uint256[]"
        }
      ],
      "name": "checkAllValue",
      "outputs": [
        {
          "internalType": "uint256",
          "name": "",
          "type": "uint256"
        }
      ],
      "stateMutability": "view",
      "type": "function"
    },
    {
      "inputs": [
        {
          "internalType": "address[]",
          "name": "_tokens",
          "type": "address[]"
        },
        {
          "internalType": "uint256[]",
          "name": "_percent",
          "type": "uint256[]"
        },
        {
          "internalType": "uint256[]",
          "name": "_expected",
          "type": "uint256[]"
        },
        {
          "internalType": "address",
          "name": "_referrer",
          "type": "address"
        }
      ],
      "name": "makeETHSwap",
      "outputs": [
        {
          "internalType": "uint256[]",
          "name": "",
          "type": "uint256[]"
        }
      ],
      "stateMutability": "payable",
      "type": "function"
    },
    {
      "inputs": [
        {
          "internalType": "address[]",
          "name": "_tokens",
          "type": "address[]"
        },
        {
          "internalType": "uint256[]",
          "name": "_percent",
          "type": "uint256[]"
        },
        {
          "internalType": "uint256[]",
          "name": "_expected",
          "type": "uint256[]"
        },
        {
          "internalType": "address",
          "name": "_referrer",
          "type": "address"
        },
        {
          "internalType": "address",
          "name": "_base",
          "type": "address"
        },
        {
          "internalType": "uint256",
          "name": "_total",
          "type": "uint256"
        }
      ],
      "name": "makeTokenSwap",
      "outputs": [
        {
          "internalType": "uint256[]",
          "name": "",
          "type": "uint256[]"
        }
      ],
      "stateMutability": "nonpayable",
      "type": "function"
    },
    {
      "inputs": [
        {
          "internalType": "address[]",
          "name": "_tokens",
          "type": "address[]"
        },
        {
          "internalType": "uint256[]",
          "name": "_amounts",
          "type": "uint256[]"
        },
        {
          "internalType": "uint256[]",
          "name": "_expected",
          "type": "uint256[]"
        },
        {
          "internalType": "address",
          "name": "_referrer",
          "type": "address"
        }
      ],
      "name": "makeTokenSwapForETH",
      "outputs": [
        {
          "internalType": "uint256",
          "name": "",
          "type": "uint256"
        }
      ],
      "stateMutability": "payable",
      "type": "function"
    },
    {
      "inputs": [
        {
          "internalType": "address",
          "name": "_token",
          "type": "address"
        },
        {
          "internalType": "uint256",
          "name": "_amount",
          "type": "uint256"
        }
      ],
      "name": "receiveToken",
      "outputs": [
        {
          "internalType": "uint256",
          "name": "",
          "type": "uint256"
        }
      ],
      "stateMutability": "nonpayable",
      "type": "function"
    },
    {
      "inputs": [
        {
          "internalType": "uint16",
          "name": "_newFeeBase",
          "type": "uint16"
        },
        {
          "internalType": "uint16",
          "name": "_newFeeToken",
          "type": "uint16"
        },
        {
          "internalType": "uint16",
          "name": "_newFeeReferral",
          "type": "uint16"
        },
        {
          "internalType": "uint16",
          "name": "_newMaxFee",
          "type": "uint16"
        }
      ],
      "name": "updateFee",
      "outputs": [
        {
          "internalType": "bool",
          "name": "",
          "type": "bool"
        }
      ],
      "stateMutability": "nonpayable",
      "type": "function"
    },
    {
      "inputs": [],
      "name": "getCurrentFee",
      "outputs": [
        {
          "internalType": "uint16",
          "name": "",
          "type": "uint16"
        },
        {
          "internalType": "uint16",
          "name": "",
          "type": "uint16"
        },
        {
          "internalType": "uint16",
          "name": "",
          "type": "uint16"
        },
        {
          "internalType": "uint16",
          "name": "",
          "type": "uint16"
        }
      ],
      "stateMutability": "view",
      "type": "function"
    },
    {
      "inputs": [
        {
          "internalType": "address",
          "name": "_newOwner",
          "type": "address"
        }
      ],
      "name": "transferOwnership",
      "outputs": [
        {
          "internalType": "bool",
          "name": "",
          "type": "bool"
        }
      ],
      "stateMutability": "nonpayable",
      "type": "function"
    },
    {
      "inputs": [],
      "name": "claimOwnership",
      "outputs": [],
      "stateMutability": "nonpayable",
      "type": "function"
    },
    {
      "inputs": [],
      "name": "renounceOwnership",
      "outputs": [],
      "stateMutability": "nonpayable",
      "type": "function"
    },
    {
      "inputs": [
        {
          "internalType": "address",
          "name": "_referrer",
          "type": "address"
        }
      ],
      "name": "addReferrer",
      "outputs": [
        {
          "internalType": "bool",
          "name": "",
          "type": "bool"
        }
      ],
      "stateMutability": "nonpayable",
      "type": "function"
    },
    {
      "inputs": [
        {
          "internalType": "address",
          "name": "_referrer",
          "type": "address"
        }
      ],
      "name": "removeReferrer",
      "outputs": [
        {
          "internalType": "bool",
          "name": "",
          "type": "bool"
        }
      ],
      "stateMutability": "nonpayable",
      "type": "function"
    },
    {
      "inputs": [],
      "name": "getOwner",
      "outputs": [
        {
          "internalType": "address",
          "name": "",
          "type": "address"
        }
      ],
      "stateMutability": "view",
      "type": "function"
    },
    {
      "inputs": [
        {
          "internalType": "address",
          "name": "_referrer",
          "type": "address"
        }
      ],
      "name": "getReferralFees",
      "outputs": [
        {
          "internalType": "uint256",
          "name": "",
          "type": "uint256"
        }
      ],
      "stateMutability": "view",
      "type": "function"
    },
    {
      "inputs": [],
      "name": "retrieveEthFees",
      "outputs": [],
      "stateMutability": "nonpayable",
      "type": "function"
    }
  ],
  "bytecode": "0x60c060405234801561001057600080fd5b50737a250d5630b4cf539739df2c5dacb4c659f2488d73ffffffffffffffffffffffffffffffffffffffff1660a08173ffffffffffffffffffffffffffffffffffffffff1660601b8152505073c02aaa39b223fe8d0a0e5c4f27ead9083c756cc273ffffffffffffffffffffffffffffffffffffffff1660808173ffffffffffffffffffffffffffffffffffffffff1660601b8152505033600360000160006101000a81548173ffffffffffffffffffffffffffffffffffffffff021916908373ffffffffffffffffffffffffffffffffffffffff160217905550601e600360000160146101000a81548161ffff021916908361ffff1602179055506014600360000160166101000a81548161ffff021916908361ffff160217905550611194600360000160186101000a81548161ffff021916908361ffff16021790555060966003600001601a6101000a81548161ffff021916908361ffff16021790555060018060003073ffffffffffffffffffffffffffffffffffffffff1673ffffffffffffffffffffffffffffffffffffffff16815260200190815260200160002060006101000a81548160ff0219169083151502179055506001806000731190074795dad0e61b61270de48e108427f8f81773ffffffffffffffffffffffffffffffffffffffff1673ffffffffffffffffffffffffffffffffffffffff16815260200190815260200160002060006101000a81548160ff02191690831515021790555060805160601c60a05160601c6155c1620002c76000396000818161092c01528181610d79015281816113690152818161166c01528181611add01528181611d41015281816123550152818161242501528181612b6b01526131a601526000818161081e01528181610d08015281816114d601528181611cd20152818161200e015281816129d501526130e601526155c16000f3fe60806040526004361061010d5760003560e01c806389f90d7f11610095578063c6526a8a11610064578063c6526a8a146103ae578063f2fde38b146103de578063f70d93621461041b578063f997e62a14610449578063fefa9bb11461047957610114565b806389f90d7f146102e05780638bdb86d21461031d57806391a3cd871461035a57806397235a1e1461037157610114565b8063636565ff116100dc578063636565ff146101e75780636d02b2ad14610224578063715018a6146102615780637a00e2e314610278578063893d20e8146102b557610114565b80631d5cfebf1461011657806321118d571461015557806321ad78b3146101925780634e71e0c8146101d057610114565b3661011457005b005b34801561012257600080fd5b5061013d60048036038101906101389190613ec2565b6104b6565b60405161014c9392919061467b565b60405180910390f35b34801561016157600080fd5b5061017c60048036038101906101779190613af0565b6106a0565b6040516101899190614a9e565b60405180910390f35b34801561019e57600080fd5b506101b960048036038101906101b49190613df3565b6106e9565b6040516101c7929190614644565b60405180910390f35b3480156101dc57600080fd5b506101e5610b33565b005b3480156101f357600080fd5b5061020e60048036038101906102099190613b5d565b610c68565b60405161021b9190614a9e565b60405180910390f35b34801561023057600080fd5b5061024b60048036038101906102469190613ff3565b610ea8565b60405161025891906146e2565b60405180910390f35b34801561026d57600080fd5b50610276610fc9565b005b34801561028457600080fd5b5061029f600480360381019061029a9190613af0565b6110e4565b6040516102ac91906146e2565b60405180910390f35b3480156102c157600080fd5b506102ca6111da565b6040516102d791906145c9565b60405180910390f35b3480156102ec57600080fd5b5061030760048036038101906103029190613d12565b611207565b60405161031491906146c0565b60405180910390f35b34801561032957600080fd5b50610344600480360381019061033f9190613bb0565b6117f0565b6040516103519190614a9e565b60405180910390f35b34801561036657600080fd5b5061036f611884565b005b34801561037d57600080fd5b5061039860048036038101906103939190613b1d565b6119eb565b6040516103a59190614a9e565b60405180910390f35b6103c860048036038101906103c39190613c57565b611efb565b6040516103d59190614a9e565b60405180910390f35b3480156103ea57600080fd5b5061040560048036038101906104009190613af0565b6126af565b60405161041291906146e2565b60405180910390f35b34801561042757600080fd5b506104306127fd565b6040516104409493929190614a59565b60405180910390f35b610463600480360381019061045e9190613c57565b612861565b60405161047091906146c0565b60405180910390f35b34801561048557600080fd5b506104a0600480360381019061049b9190613af0565b612ddd565b6040516104ad91906146e2565b60405180910390f35b606080600085518751146104ff576040517f08c379a00000000000000000000000000000000000000000000000000000000081526004016104f6906149b9565b60405180910390fd5b6000808061050e878b51612ed2565b9150915060008a5167ffffffffffffffff81111561052f5761052e614fd3565b5b60405190808252806020026020018201604052801561055d5781602001602082028036833780820191505090505b50905060005b8b51811015610645578a818151811061057f5761057e614fa4565b5b6020026020010151856105929190614d0a565b94506106128c82815181106105aa576105a9614fa4565b5b60200260200101516105f260646105e48f86815181106105cd576105cc614fa4565b5b602002602001015189612fcd90919063ffffffff16565b61304890919063ffffffff16565b8c848151811061060557610604614fa4565b5b6020026020010151613092565b5082828151811061062657610625614fa4565b5b602002602001018181525050808061063d90614efd565b915050610563565b5060648414610689576040517f08c379a000000000000000000000000000000000000000000000000000000000815260040161068090614919565b60405180910390fd5b8a8183965096509650505050509450945094915050565b6000600260008373ffffffffffffffffffffffffffffffffffffffff1673ffffffffffffffffffffffffffffffffffffffff168152602001908152602001600020549050919050565b6060808551875114610730576040517f08c379a0000000000000000000000000000000000000000000000000000000008152600401610727906149b9565b60405180910390fd5b600080885167ffffffffffffffff81111561074e5761074d614fd3565b5b60405190808252806020026020018201604052801561077c5781602001602082028036833780820191505090505b5090506000600367ffffffffffffffff81111561079c5761079b614fd3565b5b6040519080825280602002602001820160405280156107ca5781602001602082028036833780820191505090505b50905086816000815181106107e2576107e1614fa4565b5b602002602001019073ffffffffffffffffffffffffffffffffffffffff16908173ffffffffffffffffffffffffffffffffffffffff16815250507f00000000000000000000000000000000000000000000000000000000000000008160018151811061085157610850614fa4565b5b602002602001019073ffffffffffffffffffffffffffffffffffffffff16908173ffffffffffffffffffffffffffffffffffffffff168152505060005b8a51811015610adc578981815181106108aa576108a9614fa4565b5b6020026020010151846108bd9190614d0a565b93508a81815181106108d2576108d1614fa4565b5b6020026020010151826002815181106108ee576108ed614fa4565b5b602002602001019073ffffffffffffffffffffffffffffffffffffffff16908173ffffffffffffffffffffffffffffffffffffffff168152505060007f000000000000000000000000000000000000000000000000000000000000000073ffffffffffffffffffffffffffffffffffffffff1663d06ca61f6109a660646109988f878151811061098157610980614fa4565b5b60200260200101518d612fcd90919063ffffffff16565b61304890919063ffffffff16565b856040518363ffffffff1660e01b81526004016109c4929190614ab9565b60006040518083038186803b1580156109dc57600080fd5b505afa1580156109f0573d6000803e3d6000fd5b505050506040513d6000823e3d601f19601f82011682018060405250810190610a199190613f7d565b90506000610aa5610a7b6064610a6d8e8781518110610a3b57610a3a614fa4565b5b602002602001015186600181518110610a5757610a56614fa4565b5b6020026020010151612fcd90919063ffffffff16565b61304890919063ffffffff16565b83600181518110610a8f57610a8e614fa4565b5b60200260200101516132d990919063ffffffff16565b905080858481518110610abb57610aba614fa4565b5b60200260200101818152505050508080610ad490614efd565b91505061088e565b5060648314610b20576040517f08c379a0000000000000000000000000000000000000000000000000000000008152600401610b1790614899565b60405180910390fd5b8982945094505050509550959350505050565b60008054906101000a900473ffffffffffffffffffffffffffffffffffffffff1673ffffffffffffffffffffffffffffffffffffffff163373ffffffffffffffffffffffffffffffffffffffff1614610bc1576040517f08c379a0000000000000000000000000000000000000000000000000000000008152600401610bb890614859565b60405180910390fd5b60008054906101000a900473ffffffffffffffffffffffffffffffffffffffff16600360000160006101000a81548173ffffffffffffffffffffffffffffffffffffffff021916908373ffffffffffffffffffffffffffffffffffffffff16021790555060008060006101000a81548173ffffffffffffffffffffffffffffffffffffffff021916908373ffffffffffffffffffffffffffffffffffffffff160217905550565b600080600267ffffffffffffffff811115610c8657610c85614fd3565b5b604051908082528060200260200182016040528015610cb45781602001602082028036833780820191505090505b5090508481600081518110610ccc57610ccb614fa4565b5b602002602001019073ffffffffffffffffffffffffffffffffffffffff16908173ffffffffffffffffffffffffffffffffffffffff16815250507f000000000000000000000000000000000000000000000000000000000000000081600181518110610d3b57610d3a614fa4565b5b602002602001019073ffffffffffffffffffffffffffffffffffffffff16908173ffffffffffffffffffffffffffffffffffffffff168152505060007f000000000000000000000000000000000000000000000000000000000000000073ffffffffffffffffffffffffffffffffffffffff1663d06ca61f86846040518363ffffffff1660e01b8152600401610dd2929190614ab9565b60006040518083038186803b158015610dea57600080fd5b505afa158015610dfe573d6000803e3d6000fd5b505050506040513d6000823e3d601f19601f82011682018060405250810190610e279190613f7d565b90506000610e99610e6f6064610e618886600181518110610e4b57610e4a614fa4565b5b6020026020010151612fcd90919063ffffffff16565b61304890919063ffffffff16565b83600181518110610e8357610e82614fa4565b5b60200260200101516132d990919063ffffffff16565b90508093505050509392505050565b6000600360000160009054906101000a900473ffffffffffffffffffffffffffffffffffffffff1673ffffffffffffffffffffffffffffffffffffffff163373ffffffffffffffffffffffffffffffffffffffff1614610f3d576040517f08c379a0000000000000000000000000000000000000000000000000000000008152600401610f34906148b9565b60405180910390fd5b84600360000160146101000a81548161ffff021916908361ffff16021790555083600360000160166101000a81548161ffff021916908361ffff16021790555082600360000160186101000a81548161ffff021916908361ffff160217905550816003600001601a6101000a81548161ffff021916908361ffff16021790555060019050949350505050565b600360000160009054906101000a900473ffffffffffffffffffffffffffffffffffffffff1673ffffffffffffffffffffffffffffffffffffffff163373ffffffffffffffffffffffffffffffffffffffff161461105c576040517f08c379a0000000000000000000000000000000000000000000000000000000008152600401611053906148b9565b60405180910390fd5b60008060006101000a81548173ffffffffffffffffffffffffffffffffffffffff021916908373ffffffffffffffffffffffffffffffffffffffff1602179055506000600360000160006101000a81548173ffffffffffffffffffffffffffffffffffffffff021916908373ffffffffffffffffffffffffffffffffffffffff160217905550565b6000600360000160009054906101000a900473ffffffffffffffffffffffffffffffffffffffff1673ffffffffffffffffffffffffffffffffffffffff163373ffffffffffffffffffffffffffffffffffffffff1614611179576040517f08c379a0000000000000000000000000000000000000000000000000000000008152600401611170906148b9565b60405180910390fd5b6000600160008473ffffffffffffffffffffffffffffffffffffffff1673ffffffffffffffffffffffffffffffffffffffff16815260200190815260200160002060006101000a81548160ff02191690831515021790555060019050919050565b6000600360000160009054906101000a900473ffffffffffffffffffffffffffffffffffffffff16905090565b60608373ffffffffffffffffffffffffffffffffffffffff16600073ffffffffffffffffffffffffffffffffffffffff161415611279576040517f08c379a0000000000000000000000000000000000000000000000000000000008152600401611270906148f9565b60405180910390fd5b8551875114801561128b575084518651145b6112ca576040517f08c379a00000000000000000000000000000000000000000000000000000000081526004016112c1906148d9565b60405180910390fd5b6000839050600080895167ffffffffffffffff8111156112ed576112ec614fd3565b5b60405190808252806020026020018201604052801561131b5781602001602082028036833780820191505090505b50905061134b3330878673ffffffffffffffffffffffffffffffffffffffff16613323909392919063ffffffff16565b8273ffffffffffffffffffffffffffffffffffffffff1663095ea7b37f0000000000000000000000000000000000000000000000000000000000000000876040518363ffffffff1660e01b81526004016113a692919061461b565b602060405180830381600087803b1580156113c057600080fd5b505af11580156113d4573d6000803e3d6000fd5b505050506040513d601f19601f820116820180604052508101906113f89190613fc6565b611437576040517f08c379a000000000000000000000000000000000000000000000000000000000815260040161142e906149f9565b60405180910390fd5b6000600367ffffffffffffffff81111561145457611453614fd3565b5b6040519080825280602002602001820160405280156114825781602001602082028036833780820191505090505b509050868160008151811061149a57611499614fa4565b5b602002602001019073ffffffffffffffffffffffffffffffffffffffff16908173ffffffffffffffffffffffffffffffffffffffff16815250507f00000000000000000000000000000000000000000000000000000000000000008160018151811061150957611508614fa4565b5b602002602001019073ffffffffffffffffffffffffffffffffffffffff16908173ffffffffffffffffffffffffffffffffffffffff168152505060005b8b5181101561179b578a818151811061156257611561614fa4565b5b6020026020010151846115759190614d0a565b935060648411156115bb576040517f08c379a00000000000000000000000000000000000000000000000000000000081526004016115b290614939565b60405180910390fd5b8b81815181106115ce576115cd614fa4565b5b6020026020010151826002815181106115ea576115e9614fa4565b5b602002602001019073ffffffffffffffffffffffffffffffffffffffff16908173ffffffffffffffffffffffffffffffffffffffff1681525050600061166660646116588e858151811061164157611640614fa4565b5b60200260200101518b612fcd90919063ffffffff16565b61304890919063ffffffff16565b905060007f000000000000000000000000000000000000000000000000000000000000000073ffffffffffffffffffffffffffffffffffffffff166338ed1739838e86815181106116ba576116b9614fa4565b5b602002602001015187336104b0426116d29190614d0a565b6040518663ffffffff1660e01b81526004016116f2959493929190614b8f565b600060405180830381600087803b15801561170c57600080fd5b505af1158015611720573d6000803e3d6000fd5b505050506040513d6000823e3d601f19601f820116820180604052508101906117499190613f7d565b90508060018151811061175f5761175e614fa4565b5b602002602001015185848151811061177a57611779614fa4565b5b6020026020010181815250505050808061179390614efd565b915050611546565b50606483146117df576040517f08c379a00000000000000000000000000000000000000000000000000000000081526004016117d690614779565b60405180910390fd5b819450505050509695505050505050565b60008060005b85518110156118785761185886828151811061181557611814614fa4565b5b60200260200101518683815181106118305761182f614fa4565b5b602002602001015186848151811061184b5761184a614fa4565b5b6020026020010151610c68565b826118639190614d0a565b9150808061187090614efd565b9150506117f6565b50809150509392505050565b600360000160009054906101000a900473ffffffffffffffffffffffffffffffffffffffff1673ffffffffffffffffffffffffffffffffffffffff163373ffffffffffffffffffffffffffffffffffffffff1614611917576040517f08c379a000000000000000000000000000000000000000000000000000000000815260040161190e906148b9565b60405180910390fd5b6000600360000160009054906101000a900473ffffffffffffffffffffffffffffffffffffffff1673ffffffffffffffffffffffffffffffffffffffff1647604051611962906145b4565b60006040518083038185875af1925050503d806000811461199f576040519150601f19603f3d011682016040523d82523d6000602084013e6119a4565b606091505b50509050806119e8576040517f08c379a00000000000000000000000000000000000000000000000000000000081526004016119df90614799565b60405180910390fd5b50565b6000808390508073ffffffffffffffffffffffffffffffffffffffff166323b872dd3330866040518463ffffffff1660e01b8152600401611a2e939291906145e4565b602060405180830381600087803b158015611a4857600080fd5b505af1158015611a5c573d6000803e3d6000fd5b505050506040513d601f19601f82011682018060405250810190611a809190613fc6565b611abf576040517f08c379a0000000000000000000000000000000000000000000000000000000008152600401611ab690614799565b60405180910390fd5b8073ffffffffffffffffffffffffffffffffffffffff1663095ea7b37f00000000000000000000000000000000000000000000000000000000000000008373ffffffffffffffffffffffffffffffffffffffff166370a08231306040518263ffffffff1660e01b8152600401611b3591906145c9565b60206040518083038186803b158015611b4d57600080fd5b505afa158015611b61573d6000803e3d6000fd5b505050506040513d601f19601f82011682018060405250810190611b85919061405a565b6040518363ffffffff1660e01b8152600401611ba292919061461b565b602060405180830381600087803b158015611bbc57600080fd5b505af1158015611bd0573d6000803e3d6000fd5b505050506040513d601f19601f82011682018060405250810190611bf49190613fc6565b611c33576040517f08c379a0000000000000000000000000000000000000000000000000000000008152600401611c2a90614819565b60405180910390fd5b6000600267ffffffffffffffff811115611c5057611c4f614fd3565b5b604051908082528060200260200182016040528015611c7e5781602001602082028036833780820191505090505b5090508481600081518110611c9657611c95614fa4565b5b602002602001019073ffffffffffffffffffffffffffffffffffffffff16908173ffffffffffffffffffffffffffffffffffffffff16815250507f000000000000000000000000000000000000000000000000000000000000000081600181518110611d0557611d04614fa4565b5b602002602001019073ffffffffffffffffffffffffffffffffffffffff16908173ffffffffffffffffffffffffffffffffffffffff16815250507f000000000000000000000000000000000000000000000000000000000000000073ffffffffffffffffffffffffffffffffffffffff1663791ac9478373ffffffffffffffffffffffffffffffffffffffff166370a08231306040518263ffffffff1660e01b8152600401611db491906145c9565b60206040518083038186803b158015611dcc57600080fd5b505afa158015611de0573d6000803e3d6000fd5b505050506040513d601f19601f82011682018060405250810190611e04919061405a565b600084306104b042611e169190614d0a565b6040518663ffffffff1660e01b8152600401611e36959493929190614b35565b600060405180830381600087803b158015611e5057600080fd5b505af1158015611e64573d6000803e3d6000fd5b505050508173ffffffffffffffffffffffffffffffffffffffff166370a08231306040518263ffffffff1660e01b8152600401611ea191906145c9565b60206040518083038186803b158015611eb957600080fd5b505afa158015611ecd573d6000803e3d6000fd5b505050506040513d601f19601f82011682018060405250810190611ef1919061405a565b9250505092915050565b60008173ffffffffffffffffffffffffffffffffffffffff16600073ffffffffffffffffffffffffffffffffffffffff161415611f6d576040517f08c379a0000000000000000000000000000000000000000000000000000000008152600401611f64906148f9565b60405180910390fd5b83518551148015611f7f575082518351145b611fbe576040517f08c379a0000000000000000000000000000000000000000000000000000000008152600401611fb5906148d9565b60405180910390fd5b6000600267ffffffffffffffff811115611fdb57611fda614fd3565b5b6040519080825280602002602001820160405280156120095781602001602082028036833780820191505090505b5090507f00000000000000000000000000000000000000000000000000000000000000008160018151811061204157612040614fa4565b5b602002602001019073ffffffffffffffffffffffffffffffffffffffff16908173ffffffffffffffffffffffffffffffffffffffff1681525050600047905060005b87518110156124de5787818151811061209f5761209e614fa4565b5b6020026020010151836000815181106120bb576120ba614fa4565b5b602002602001019073ffffffffffffffffffffffffffffffffffffffff16908173ffffffffffffffffffffffffffffffffffffffff1681525050600088828151811061210a57612109614fa4565b5b602002602001015190508073ffffffffffffffffffffffffffffffffffffffff166323b872dd33308b868151811061214557612144614fa4565b5b60200260200101516040518463ffffffff1660e01b815260040161216b939291906145e4565b602060405180830381600087803b15801561218557600080fd5b505af1158015612199573d6000803e3d6000fd5b505050506040513d601f19601f820116820180604052508101906121bd9190613fc6565b6121fc576040517f08c379a00000000000000000000000000000000000000000000000000000000081526004016121f390614799565b60405180910390fd5b600088838151811061221157612210614fa4565b5b602002602001015190508173ffffffffffffffffffffffffffffffffffffffff166370a08231306040518263ffffffff1660e01b815260040161225491906145c9565b60206040518083038186803b15801561226c57600080fd5b505afa158015612280573d6000803e3d6000fd5b505050506040513d601f19601f820116820180604052508101906122a4919061405a565b811115612337578173ffffffffffffffffffffffffffffffffffffffff166370a08231306040518263ffffffff1660e01b81526004016122e491906145c9565b60206040518083038186803b1580156122fc57600080fd5b505afa158015612310573d6000803e3d6000fd5b505050506040513d601f19601f82011682018060405250810190612334919061405a565b90505b8173ffffffffffffffffffffffffffffffffffffffff1663095ea7b37f0000000000000000000000000000000000000000000000000000000000000000836040518363ffffffff1660e01b815260040161239292919061461b565b602060405180830381600087803b1580156123ac57600080fd5b505af11580156123c0573d6000803e3d6000fd5b505050506040513d601f19601f820116820180604052508101906123e49190613fc6565b612423576040517f08c379a000000000000000000000000000000000000000000000000000000000815260040161241a90614a39565b60405180910390fd5b7f000000000000000000000000000000000000000000000000000000000000000073ffffffffffffffffffffffffffffffffffffffff1663791ac94764746a528800600088306104b0426124779190614d0a565b6040518663ffffffff1660e01b81526004016124979594939291906146fd565b600060405180830381600087803b1580156124b157600080fd5b505af11580156124c5573d6000803e3d6000fd5b50505050505080806124d690614efd565b915050612083565b506000806124ff6124f884476132d990919063ffffffff16565b8a51612ed2565b915091503073ffffffffffffffffffffffffffffffffffffffff168673ffffffffffffffffffffffffffffffffffffffff16146125f357600061254282886133ac565b905060008773ffffffffffffffffffffffffffffffffffffffff168260405161256a906145b4565b60006040518083038185875af1925050503d80600081146125a7576040519150601f19603f3d011682016040523d82523d6000602084013e6125ac565b606091505b50509050806125f0576040517f08c379a00000000000000000000000000000000000000000000000000000000081526004016125e790614959565b60405180910390fd5b50505b60003373ffffffffffffffffffffffffffffffffffffffff1683604051612619906145b4565b60006040518083038185875af1925050503d8060008114612656576040519150601f19603f3d011682016040523d82523d6000602084013e61265b565b606091505b505090508061269f576040517f08c379a0000000000000000000000000000000000000000000000000000000008152600401612696906147b9565b60405180910390fd5b8295505050505050949350505050565b6000600360000160009054906101000a900473ffffffffffffffffffffffffffffffffffffffff1673ffffffffffffffffffffffffffffffffffffffff163373ffffffffffffffffffffffffffffffffffffffff1614612744576040517f08c379a000000000000000000000000000000000000000000000000000000000815260040161273b906148b9565b60405180910390fd5b8173ffffffffffffffffffffffffffffffffffffffff16600073ffffffffffffffffffffffffffffffffffffffff1614156127b4576040517f08c379a00000000000000000000000000000000000000000000000000000000081526004016127ab906147f9565b60405180910390fd5b816000806101000a81548173ffffffffffffffffffffffffffffffffffffffff021916908373ffffffffffffffffffffffffffffffffffffffff16021790555060019050919050565b600080600080600360000160149054906101000a900461ffff16600360000160169054906101000a900461ffff16600360000160189054906101000a900461ffff166003600001601a9054906101000a900461ffff16935093509350935090919293565b60608173ffffffffffffffffffffffffffffffffffffffff16600073ffffffffffffffffffffffffffffffffffffffff1614156128d3576040517f08c379a00000000000000000000000000000000000000000000000000000000081526004016128ca906148f9565b60405180910390fd5b835185511480156128e5575082518451145b612924576040517f08c379a000000000000000000000000000000000000000000000000000000000815260040161291b906148d9565b60405180910390fd5b600080612932348851612ed2565b91509150600080885167ffffffffffffffff81111561295457612953614fd3565b5b6040519080825280602002602001820160405280156129825781602001602082028036833780820191505090505b5090506000600267ffffffffffffffff8111156129a2576129a1614fd3565b5b6040519080825280602002602001820160405280156129d05781602001602082028036833780820191505090505b5090507f000000000000000000000000000000000000000000000000000000000000000081600081518110612a0857612a07614fa4565b5b602002602001019073ffffffffffffffffffffffffffffffffffffffff16908173ffffffffffffffffffffffffffffffffffffffff168152505060005b8a51811015612c9957898181518110612a6157612a60614fa4565b5b602002602001015184612a749190614d0a565b93506064841115612aba576040517f08c379a0000000000000000000000000000000000000000000000000000000008152600401612ab190614a19565b60405180910390fd5b8a8181518110612acd57612acc614fa4565b5b602002602001015182600181518110612ae957612ae8614fa4565b5b602002602001019073ffffffffffffffffffffffffffffffffffffffff16908173ffffffffffffffffffffffffffffffffffffffff16815250506000612b656064612b578d8581518110612b4057612b3f614fa4565b5b60200260200101518a612fcd90919063ffffffff16565b61304890919063ffffffff16565b905060007f000000000000000000000000000000000000000000000000000000000000000073ffffffffffffffffffffffffffffffffffffffff16637ff36ab5838d8681518110612bb957612bb8614fa4565b5b602002602001015187336104b042612bd19190614d0a565b6040518663ffffffff1660e01b8152600401612bf09493929190614ae9565b6000604051808303818588803b158015612c0957600080fd5b505af1158015612c1d573d6000803e3d6000fd5b50505050506040513d6000823e3d601f19601f82011682018060405250810190612c479190613f7d565b905080600181518110612c5d57612c5c614fa4565b5b6020026020010151858481518110612c7857612c77614fa4565b5b60200260200101818152505050508080612c9190614efd565b915050612a45565b5060648314612cdd576040517f08c379a0000000000000000000000000000000000000000000000000000000008152600401612cd490614779565b60405180910390fd5b3073ffffffffffffffffffffffffffffffffffffffff168773ffffffffffffffffffffffffffffffffffffffff1614612dcd576000612d1c85896133ac565b905060008873ffffffffffffffffffffffffffffffffffffffff1682604051612d44906145b4565b60006040518083038185875af1925050503d8060008114612d81576040519150601f19603f3d011682016040523d82523d6000602084013e612d86565b606091505b5050905080612dca576040517f08c379a0000000000000000000000000000000000000000000000000000000008152600401612dc190614959565b60405180910390fd5b50505b8195505050505050949350505050565b6000600360000160009054906101000a900473ffffffffffffffffffffffffffffffffffffffff1673ffffffffffffffffffffffffffffffffffffffff163373ffffffffffffffffffffffffffffffffffffffff1614612e72576040517f08c379a0000000000000000000000000000000000000000000000000000000008152600401612e69906148b9565b60405180910390fd5b60018060008473ffffffffffffffffffffffffffffffffffffffff1673ffffffffffffffffffffffffffffffffffffffff16815260200190815260200160002060006101000a81548160ff02191690831515021790555060019050919050565b6000806000612f01600360000160169054906101000a900461ffff1661ffff1685612fcd90919063ffffffff16565b9050600360000160169054906101000a900461ffff1661ffff1681612f269190614deb565b9050600360000160149054906101000a900461ffff1661ffff1681612f4b9190614d0a565b90506003600001601a9054906101000a900461ffff1661ffff16811115612f87576003600001601a9054906101000a900461ffff1661ffff1690505b612fae612710612fa08388612fcd90919063ffffffff16565b61304890919063ffffffff16565b9150612fc382866132d990919063ffffffff16565b9250509250929050565b600080831415612fe05760009050613042565b60008284612fee9190614d91565b9050828482612ffd9190614d60565b1461303d576040517f08c379a000000000000000000000000000000000000000000000000000000000815260040161303490614879565b60405180910390fd5b809150505b92915050565b600061308a83836040518060400160405280601a81526020017f536166654d6174683a206469766973696f6e206279207a65726f00000000000081525061351b565b905092915050565b600060606000600267ffffffffffffffff8111156130b3576130b2614fd3565b5b6040519080825280602002602001820160405280156130e15781602001602082028036833780820191505090505b5090507f00000000000000000000000000000000000000000000000000000000000000008160008151811061311957613118614fa4565b5b602002602001019073ffffffffffffffffffffffffffffffffffffffff16908173ffffffffffffffffffffffffffffffffffffffff1681525050858160018151811061316857613167614fa4565b5b602002602001019073ffffffffffffffffffffffffffffffffffffffff16908173ffffffffffffffffffffffffffffffffffffffff168152505060007f000000000000000000000000000000000000000000000000000000000000000073ffffffffffffffffffffffffffffffffffffffff1663d06ca61f87846040518363ffffffff1660e01b81526004016131ff929190614ab9565b60006040518083038186803b15801561321757600080fd5b505afa15801561322b573d6000803e3d6000fd5b505050506040513d6000823e3d601f19601f820116820180604052508101906132549190613f7d565b905060006132c661329c606461328e898660018151811061327857613277614fa4565b5b6020026020010151612fcd90919063ffffffff16565b61304890919063ffffffff16565b836001815181106132b0576132af614fa4565b5b60200260200101516132d990919063ffffffff16565b9050808394509450505050935093915050565b600061331b83836040518060400160405280601e81526020017f536166654d6174683a207375627472616374696f6e206f766572666c6f77000081525061357e565b905092915050565b6133a6846323b872dd60e01b858585604051602401613344939291906145e4565b604051602081830303815290604052907bffffffffffffffffffffffffffffffffffffffffffffffffffffffff19166020820180517bffffffffffffffffffffffffffffffffffffffffffffffffffffffff83818316178352505050506135e2565b50505050565b6000600160008373ffffffffffffffffffffffffffffffffffffffff1673ffffffffffffffffffffffffffffffffffffffff16815260200190815260200160002060009054906101000a900460ff1661343a576040517f08c379a000000000000000000000000000000000000000000000000000000000815260040161343190614999565b60405180910390fd5b600061347a61271061346c600360000160189054906101000a900461ffff1661ffff1687612fcd90919063ffffffff16565b61304890919063ffffffff16565b90506134ce81600260008673ffffffffffffffffffffffffffffffffffffffff1673ffffffffffffffffffffffffffffffffffffffff168152602001908152602001600020546136a990919063ffffffff16565b600260008573ffffffffffffffffffffffffffffffffffffffff1673ffffffffffffffffffffffffffffffffffffffff168152602001908152602001600020819055508091505092915050565b60008083118290613562576040517f08c379a00000000000000000000000000000000000000000000000000000000081526004016135599190614757565b60405180910390fd5b50600083856135719190614d60565b9050809150509392505050565b60008383111582906135c6576040517f08c379a00000000000000000000000000000000000000000000000000000000081526004016135bd9190614757565b60405180910390fd5b50600083856135d59190614deb565b9050809150509392505050565b6000613644826040518060400160405280602081526020017f5361666545524332303a206c6f772d6c6576656c2063616c6c206661696c65648152508573ffffffffffffffffffffffffffffffffffffffff166137079092919063ffffffff16565b90506000815111156136a457808060200190518101906136649190613fc6565b6136a3576040517f08c379a000000000000000000000000000000000000000000000000000000000815260040161369a906149d9565b60405180910390fd5b5b505050565b60008082846136b89190614d0a565b9050838110156136fd576040517f08c379a00000000000000000000000000000000000000000000000000000000081526004016136f4906147d9565b60405180910390fd5b8091505092915050565b6060613716848460008561371f565b90509392505050565b606082471015613764576040517f08c379a000000000000000000000000000000000000000000000000000000000815260040161375b90614839565b60405180910390fd5b61376d85613833565b6137ac576040517f08c379a00000000000000000000000000000000000000000000000000000000081526004016137a390614979565b60405180910390fd5b6000808673ffffffffffffffffffffffffffffffffffffffff1685876040516137d5919061459d565b60006040518083038185875af1925050503d8060008114613812576040519150601f19603f3d011682016040523d82523d6000602084013e613817565b606091505b5091509150613827828286613846565b92505050949350505050565b600080823b905060008111915050919050565b60608315613856578290506138a6565b6000835111156138695782518084602001fd5b816040517f08c379a000000000000000000000000000000000000000000000000000000000815260040161389d9190614757565b60405180910390fd5b9392505050565b60006138c06138bb84614c0e565b614be9565b905080838252602082019050828560208602820111156138e3576138e2615007565b5b60005b8581101561391357816138f988826139fd565b8452602084019350602083019250506001810190506138e6565b5050509392505050565b600061393061392b84614c3a565b614be9565b9050808382526020820190508285602086028201111561395357613952615007565b5b60005b8581101561398357816139698882613ac6565b845260208401935060208301925050600181019050613956565b5050509392505050565b60006139a061399b84614c3a565b614be9565b905080838252602082019050828560208602820111156139c3576139c2615007565b5b60005b858110156139f357816139d98882613adb565b8452602084019350602083019250506001810190506139c6565b5050509392505050565b600081359050613a0c8161552f565b92915050565b600082601f830112613a2757613a26615002565b5b8135613a378482602086016138ad565b91505092915050565b600082601f830112613a5557613a54615002565b5b8135613a6584826020860161391d565b91505092915050565b600082601f830112613a8357613a82615002565b5b8151613a9384826020860161398d565b91505092915050565b600081519050613aab81615546565b92915050565b600081359050613ac08161555d565b92915050565b600081359050613ad581615574565b92915050565b600081519050613aea81615574565b92915050565b600060208284031215613b0657613b05615011565b5b6000613b14848285016139fd565b91505092915050565b60008060408385031215613b3457613b33615011565b5b6000613b42858286016139fd565b9250506020613b5385828601613ac6565b9150509250929050565b600080600060608486031215613b7657613b75615011565b5b6000613b84868287016139fd565b9350506020613b9586828701613ac6565b9250506040613ba686828701613ac6565b9150509250925092565b600080600060608486031215613bc957613bc8615011565b5b600084013567ffffffffffffffff811115613be757613be661500c565b5b613bf386828701613a12565b935050602084013567ffffffffffffffff811115613c1457613c1361500c565b5b613c2086828701613a40565b925050604084013567ffffffffffffffff811115613c4157613c4061500c565b5b613c4d86828701613a40565b9150509250925092565b60008060008060808587031215613c7157613c70615011565b5b600085013567ffffffffffffffff811115613c8f57613c8e61500c565b5b613c9b87828801613a12565b945050602085013567ffffffffffffffff811115613cbc57613cbb61500c565b5b613cc887828801613a40565b935050604085013567ffffffffffffffff811115613ce957613ce861500c565b5b613cf587828801613a40565b9250506060613d06878288016139fd565b91505092959194509250565b60008060008060008060c08789031215613d2f57613d2e615011565b5b600087013567ffffffffffffffff811115613d4d57613d4c61500c565b5b613d5989828a01613a12565b965050602087013567ffffffffffffffff811115613d7a57613d7961500c565b5b613d8689828a01613a40565b955050604087013567ffffffffffffffff811115613da757613da661500c565b5b613db389828a01613a40565b9450506060613dc489828a016139fd565b9350506080613dd589828a016139fd565b92505060a0613de689828a01613ac6565b9150509295509295509295565b600080600080600060a08688031215613e0f57613e0e615011565b5b600086013567ffffffffffffffff811115613e2d57613e2c61500c565b5b613e3988828901613a12565b955050602086013567ffffffffffffffff811115613e5a57613e5961500c565b5b613e6688828901613a40565b945050604086013567ffffffffffffffff811115613e8757613e8661500c565b5b613e9388828901613a40565b9350506060613ea4888289016139fd565b9250506080613eb588828901613ac6565b9150509295509295909350565b60008060008060808587031215613edc57613edb615011565b5b600085013567ffffffffffffffff811115613efa57613ef961500c565b5b613f0687828801613a12565b945050602085013567ffffffffffffffff811115613f2757613f2661500c565b5b613f3387828801613a40565b935050604085013567ffffffffffffffff811115613f5457613f5361500c565b5b613f6087828801613a40565b9250506060613f7187828801613ac6565b91505092959194509250565b600060208284031215613f9357613f92615011565b5b600082015167ffffffffffffffff811115613fb157613fb061500c565b5b613fbd84828501613a6e565b91505092915050565b600060208284031215613fdc57613fdb615011565b5b6000613fea84828501613a9c565b91505092915050565b6000806000806080858703121561400d5761400c615011565b5b600061401b87828801613ab1565b945050602061402c87828801613ab1565b935050604061403d87828801613ab1565b925050606061404e87828801613ab1565b91505092959194509250565b6000602082840312156140705761406f615011565b5b600061407e84828501613adb565b91505092915050565b600061409383836140b7565b60208301905092915050565b60006140ab838361457f565b60208301905092915050565b6140c081614e1f565b82525050565b6140cf81614e1f565b82525050565b60006140e082614c86565b6140ea8185614ccc565b93506140f583614c66565b8060005b8381101561412657815161410d8882614087565b975061411883614cb2565b9250506001810190506140f9565b5085935050505092915050565b600061413e82614c91565b6141488185614cdd565b935061415383614c76565b8060005b8381101561418457815161416b888261409f565b975061417683614cbf565b925050600181019050614157565b5085935050505092915050565b61419a81614e31565b82525050565b60006141ab82614c9c565b6141b58185614cee565b93506141c5818560208601614e99565b80840191505092915050565b6141da81614e75565b82525050565b6141e981614e87565b82525050565b60006141fa82614ca7565b6142048185614cf9565b9350614214818560208601614e99565b61421d81615016565b840191505092915050565b6000614235601a83614cf9565b915061424082615027565b602082019050919050565b6000614258601a83614cf9565b915061426382615050565b602082019050919050565b600061427b602583614cf9565b915061428682615079565b604082019050919050565b600061429e601b83614cf9565b91506142a9826150c8565b602082019050919050565b60006142c1602b83614cf9565b91506142cc826150f1565b604082019050919050565b60006142e4601a83614cf9565b91506142ef82615140565b602082019050919050565b6000614307602683614cf9565b915061431282615169565b604082019050919050565b600061432a601c83614cf9565b9150614335826151b8565b602082019050919050565b600061434d602183614cf9565b9150614358826151e1565b604082019050919050565b6000614370601c83614cf9565b915061437b82615230565b602082019050919050565b6000614393600b83614cf9565b915061439e82615259565b602082019050919050565b60006143b6601e83614cf9565b91506143c182615282565b602082019050919050565b60006143d9602b83614cf9565b91506143e4826152ab565b604082019050919050565b60006143fc601d83614cf9565b9150614407826152fa565b602082019050919050565b600061441f601783614cf9565b915061442a82615323565b602082019050919050565b6000614442602683614cf9565b915061444d8261534c565b604082019050919050565b6000614465600083614cee565b91506144708261539b565b600082019050919050565b6000614488601d83614cf9565b91506144938261539e565b602082019050919050565b60006144ab602483614cf9565b91506144b6826153c7565b604082019050919050565b60006144ce601e83614cf9565b91506144d982615416565b602082019050919050565b60006144f1602a83614cf9565b91506144fc8261543f565b604082019050919050565b6000614514602283614cf9565b915061451f8261548e565b604082019050919050565b6000614537601883614cf9565b9150614542826154dd565b602082019050919050565b600061455a601b83614cf9565b915061456582615506565b602082019050919050565b61457981614e3d565b82525050565b61458881614e6b565b82525050565b61459781614e6b565b82525050565b60006145a982846141a0565b915081905092915050565b60006145bf82614458565b9150819050919050565b60006020820190506145de60008301846140c6565b92915050565b60006060820190506145f960008301866140c6565b61460660208301856140c6565b614613604083018461458e565b949350505050565b600060408201905061463060008301856140c6565b61463d602083018461458e565b9392505050565b6000604082019050818103600083015261465e81856140d5565b905081810360208301526146728184614133565b90509392505050565b6000606082019050818103600083015261469581866140d5565b905081810360208301526146a98185614133565b90506146b8604083018461458e565b949350505050565b600060208201905081810360008301526146da8184614133565b905092915050565b60006020820190506146f76000830184614191565b92915050565b600060a08201905061471260008301886141e0565b61471f60208301876141d1565b818103604083015261473181866140d5565b905061474060608301856140c6565b61474d608083018461458e565b9695505050505050565b6000602082019050818103600083015261477181846141ef565b905092915050565b6000602082019050818103600083015261479281614228565b9050919050565b600060208201905081810360008301526147b28161424b565b9050919050565b600060208201905081810360008301526147d28161426e565b9050919050565b600060208201905081810360008301526147f281614291565b9050919050565b60006020820190508181036000830152614812816142b4565b9050919050565b60006020820190508181036000830152614832816142d7565b9050919050565b60006020820190508181036000830152614852816142fa565b9050919050565b600060208201905081810360008301526148728161431d565b9050919050565b6000602082019050818103600083015261489281614340565b9050919050565b600060208201905081810360008301526148b281614363565b9050919050565b600060208201905081810360008301526148d281614386565b9050919050565b600060208201905081810360008301526148f2816143a9565b9050919050565b60006020820190508181036000830152614912816143cc565b9050919050565b60006020820190508181036000830152614932816143ef565b9050919050565b6000602082019050818103600083015261495281614412565b9050919050565b6000602082019050818103600083015261497281614435565b9050919050565b600060208201905081810360008301526149928161447b565b9050919050565b600060208201905081810360008301526149b28161449e565b9050919050565b600060208201905081810360008301526149d2816144c1565b9050919050565b600060208201905081810360008301526149f2816144e4565b9050919050565b60006020820190508181036000830152614a1281614507565b9050919050565b60006020820190508181036000830152614a328161452a565b9050919050565b60006020820190508181036000830152614a528161454d565b9050919050565b6000608082019050614a6e6000830187614570565b614a7b6020830186614570565b614a886040830185614570565b614a956060830184614570565b95945050505050565b6000602082019050614ab3600083018461458e565b92915050565b6000604082019050614ace600083018561458e565b8181036020830152614ae081846140d5565b90509392505050565b6000608082019050614afe600083018761458e565b8181036020830152614b1081866140d5565b9050614b1f60408301856140c6565b614b2c606083018461458e565b95945050505050565b600060a082019050614b4a600083018861458e565b614b5760208301876141d1565b8181036040830152614b6981866140d5565b9050614b7860608301856140c6565b614b85608083018461458e565b9695505050505050565b600060a082019050614ba4600083018861458e565b614bb1602083018761458e565b8181036040830152614bc381866140d5565b9050614bd260608301856140c6565b614bdf608083018461458e565b9695505050505050565b6000614bf3614c04565b9050614bff8282614ecc565b919050565b6000604051905090565b600067ffffffffffffffff821115614c2957614c28614fd3565b5b602082029050602081019050919050565b600067ffffffffffffffff821115614c5557614c54614fd3565b5b602082029050602081019050919050565b6000819050602082019050919050565b6000819050602082019050919050565b600081519050919050565b600081519050919050565b600081519050919050565b600081519050919050565b6000602082019050919050565b6000602082019050919050565b600082825260208201905092915050565b600082825260208201905092915050565b600081905092915050565b600082825260208201905092915050565b6000614d1582614e6b565b9150614d2083614e6b565b9250827fffffffffffffffffffffffffffffffffffffffffffffffffffffffffffffffff03821115614d5557614d54614f46565b5b828201905092915050565b6000614d6b82614e6b565b9150614d7683614e6b565b925082614d8657614d85614f75565b5b828204905092915050565b6000614d9c82614e6b565b9150614da783614e6b565b9250817fffffffffffffffffffffffffffffffffffffffffffffffffffffffffffffffff0483118215151615614de057614ddf614f46565b5b828202905092915050565b6000614df682614e6b565b9150614e0183614e6b565b925082821015614e1457614e13614f46565b5b828203905092915050565b6000614e2a82614e4b565b9050919050565b60008115159050919050565b600061ffff82169050919050565b600073ffffffffffffffffffffffffffffffffffffffff82169050919050565b6000819050919050565b6000614e8082614e6b565b9050919050565b6000614e9282614e6b565b9050919050565b60005b83811015614eb7578082015181840152602081019050614e9c565b83811115614ec6576000848401525b50505050565b614ed582615016565b810181811067ffffffffffffffff82111715614ef457614ef3614fd3565b5b80604052505050565b6000614f0882614e6b565b91507fffffffffffffffffffffffffffffffffffffffffffffffffffffffffffffffff821415614f3b57614f3a614f46565b5b600182019050919050565b7f4e487b7100000000000000000000000000000000000000000000000000000000600052601160045260246000fd5b7f4e487b7100000000000000000000000000000000000000000000000000000000600052601260045260246000fd5b7f4e487b7100000000000000000000000000000000000000000000000000000000600052603260045260246000fd5b7f4e487b7100000000000000000000000000000000000000000000000000000000600052604160045260246000fd5b600080fd5b600080fd5b600080fd5b600080fd5b6000601f19601f8301169050919050565b7f4d756c7469737761703a2050657263656e74206e6f7420313030000000000000600082015250565b7f4d756c7469737761703a205472616e73666572206661696c6564000000000000600082015250565b7f4d756c7469737761703a204661696c656420746f2073656e642073776170206f60008201527f7574707574000000000000000000000000000000000000000000000000000000602082015250565b7f536166654d6174683a206164646974696f6e206f766572666c6f770000000000600082015250565b7f4d756c7469737761703a206e65774f776e65722073657420746f20746865207a60008201527f65726f2061646472657373000000000000000000000000000000000000000000602082015250565b7f4d756c7469737761703a20617070726f76616c206661696c6564000000000000600082015250565b7f416464726573733a20696e73756666696369656e742062616c616e636520666f60008201527f722063616c6c0000000000000000000000000000000000000000000000000000602082015250565b7f4d756c7469737761703a206e6f742070656e64696e67206f776e657200000000600082015250565b7f536166654d6174683a206d756c7469706c69636174696f6e206f766572666c6f60008201527f7700000000000000000000000000000000000000000000000000000000000000602082015250565b7f4d756c7469737761703a20706f72746f6c696f206e6f74203130302500000000600082015250565b7f4e6f7420616c6c6f776564000000000000000000000000000000000000000000600082015250565b7f4d756c7469737761703a20496e7075742064617461206d69736d617463680000600082015250565b7f4d756c7469737761703a2072656665727265722063616e6e6f74206265207a6560008201527f726f206164647265737373000000000000000000000000000000000000000000602082015250565b7f4d756c7469737761703a20706f7274666f6c696f206e6f742031303025000000600082015250565b7f4d756c7469737761703a20457863656564656420313030000000000000000000600082015250565b7f4d756c7469737761703a204661696c656420746f2073656e642072656665727260008201527f616c206665650000000000000000000000000000000000000000000000000000602082015250565b50565b7f416464726573733a2063616c6c20746f206e6f6e2d636f6e7472616374000000600082015250565b7f4d756c7469737761703a204e6f74207369676e6564207570206173207265666560008201527f7272657200000000000000000000000000000000000000000000000000000000602082015250565b7f4d756c7469737761703a206d69736d6174636820696e70757420646174610000600082015250565b7f5361666545524332303a204552433230206f7065726174696f6e20646964206e60008201527f6f74207375636365656400000000000000000000000000000000000000000000602082015250565b7f4d756c7469737761703a20556e697377617020617070726f76616c206661696c60008201527f6564000000000000000000000000000000000000000000000000000000000000602082015250565b7f4d756c7469737761703a20457863656564656420313030250000000000000000600082015250565b7f4d756c7469737761703a20417070726f76616c206661696c7572650000000000600082015250565b61553881614e1f565b811461554357600080fd5b50565b61554f81614e31565b811461555a57600080fd5b50565b61556681614e3d565b811461557157600080fd5b50565b61557d81614e6b565b811461558857600080fd5b5056fea26469706673582212209978c1b0e346901156e11346992bdd5c58aa541c20cae67cc58990af6607d01364736f6c63430008070033",
  "immutableReferences": {
    "15": [
      {
        "length": 32,
        "start": 2078
      },
      {
        "length": 32,
        "start": 3336
      },
      {
        "length": 32,
        "start": 5334
      },
      {
        "length": 32,
        "start": 7378
      },
      {
        "length": 32,
        "start": 8206
      },
      {
        "length": 32,
        "start": 10709
      },
      {
        "length": 32,
        "start": 12518
      }
    ],
    "18": [
      {
        "length": 32,
        "start": 2348
      },
      {
        "length": 32,
        "start": 3449
      },
      {
        "length": 32,
        "start": 4969
      },
      {
        "length": 32,
        "start": 5740
      },
      {
        "length": 32,
        "start": 6877
      },
      {
        "length": 32,
        "start": 7489
      },
      {
        "length": 32,
        "start": 9045
      },
      {
        "length": 32,
        "start": 9253
      },
      {
        "length": 32,
        "start": 11115
      },
      {
        "length": 32,
        "start": 12710
      }
    ]
  },
  "source": "// SPDX-License-Identifier: MIT\n\npragma solidity 0.8.7;\n\nimport \"./interfaces/IUniswapV2Router02.sol\";\nimport \"./libraries/SafeMath.sol\";\nimport \"./libraries/SafeERC20.sol\";\n\ncontract Multiswap {\n    using SafeMath for uint256;\n    using SafeERC20 for IERC20;\n\n    // Ownership change pending\n    address private pendingOwner;\n\n    // WETH Address\n    address private immutable WETH;\n\n    // Uniswap Router for swaps\n    IUniswapV2Router02 private immutable uniswapRouter;\n\n    // Referral data\n    mapping (address => bool) private referrers;\n    mapping (address => uint256) private referralFees;\n\n    // Data struct\n    struct ContractData {\n        uint160 owner;\n        uint16 swapFeeBase;\n        uint16 swapFeeToken;\n        uint16 referralFee;\n        uint16 maxFee;\n    }\n    \n    ContractData private data;\n\n    // Modifier for only owner functions\n    modifier onlyOwner {\n        require(msg.sender == address(data.owner), \"Not allowed\");\n        _;\n    }\n\n    /**\n     * @dev Constructor sets values for Uniswap, WETH, and fee data\n     * \n     * These values are the immutable state values for Uniswap and WETH.\n     *\n    */\n    constructor() {\n        uniswapRouter = IUniswapV2Router02(0x7a250d5630B4cF539739dF2C5dAcb4c659F2488D);\n        WETH = address(0xC02aaA39b223FE8D0A0e5C4F27eAD9083C756Cc2);\n        \n        data.owner = uint160(msg.sender);\n        // add extra two digits to percent for accuracy (30 = 0.3)\n        data.swapFeeBase = uint16(30); // 0.3%\n        data.swapFeeToken = uint16(20); // 0.2% per token\n        data.referralFee = uint16(4500); // 45% for referrals\n        data.maxFee = uint16(150); // 1.5% max fee\n\n        // Add standard referrers\n        referrers[address(this)] = true;\n        referrers[address(0x1190074795DAD0E61b61270De48e108427f8f817)] = true;\n    }\n    \n    /**\n     * @dev Enables receiving ETH with no function call\n    */\n    receive() external payable {}\n    fallback() external payable {}\n\n    /**\n     * @dev Checks and returns expected output fom ETH swap.\n    */\n    function checkOutputsETH(\n        address[] memory _tokens,\n        uint256[] memory _percent,\n        uint256[] memory _slippage,\n        uint256 _total\n    ) external view returns (address[] memory, uint256[] memory, uint256)\n    {\n        require(_tokens.length == _percent.length, 'Multiswap: mismatch input data');\n\n        uint256 _totalPercent = 0;\n        (uint256 valueToSend, uint256 feeAmount) = applyFeeETH(_total, _tokens.length);\n\n        uint256[] memory _outputAmount = new uint256[](_tokens.length);\n\n        for (uint256 i = 0; i < _tokens.length; i++) {\n            _totalPercent += _percent[i];\n            (_outputAmount[i],) = calcOutputEth(\n                _tokens[i],\n                valueToSend.mul(_percent[i]).div(100),\n                _slippage[i]\n            );\n        }\n\n        require(_totalPercent == 100, 'Multiswap: portfolio not 100%');\n\n        return (_tokens, _outputAmount, feeAmount);\n    }\n\n    /**\n     * @dev Checks and returns expected output from token swap.\n    */\n    function checkOutputsToken(\n        address[] memory _tokens,\n        uint256[] memory _percent,\n        uint256[] memory _slippage,\n        address _base,\n        uint256 _total\n        ) external view returns (address[] memory, uint256[] memory)\n    {\n        require(_tokens.length == _percent.length, 'Multiswap: mismatch input data');\n        \n        uint256 _totalPercent = 0;\n        uint256[] memory _outputAmount = new uint256[](_tokens.length);\n        address[] memory path = new address[](3);\n        path[0] = _base;\n        path[1] = WETH;\n        \n        for (uint256 i = 0; i < _tokens.length; i++) {\n            _totalPercent += _percent[i];\n            path[2] = _tokens[i];\n            uint256[] memory expected = uniswapRouter.getAmountsOut(_total.mul(_percent[i]).div(100), path);\n            uint256 adjusted = expected[1].sub(expected[1].mul(_slippage[i]).div(100));\n            _outputAmount[i] = adjusted;\n        }\n        \n        require(_totalPercent == 100, 'Multiswap: portolio not 100%');\n        \n        return (_tokens, _outputAmount);\n    }\n    \n    /**\n     * @dev Checks and returns ETH value of token amount.\n    */\n    function checkTokenValueETH(address _token, uint256 _amount, uint256 _slippage)\n        public\n        view\n        returns (uint256)\n    {\n        address[] memory path = new address[](2);\n        path[0] = _token;\n        path[1] = WETH;\n        uint256[] memory expected = uniswapRouter.getAmountsOut(_amount, path);\n        uint256 adjusted = expected[1].sub(expected[1].mul(_slippage).div(100));\n        return adjusted;\n    }\n    \n    /**\n     * @dev Checks and returns ETH value of portfolio.\n    */\n    function checkAllValue(address[] memory _tokens, uint256[] memory _amounts, uint256[] memory _slippage)\n        external\n        view\n        returns (uint256)\n    {\n        uint256 totalValue;\n        \n        for (uint i = 0; i < _tokens.length; i++) {\n            totalValue += checkTokenValueETH(_tokens[i], _amounts[i], _slippage[i]);\n        }\n        \n        return totalValue;\n    }\n    \n    /**\n     * @dev Internal function to calculate the output from one ETH swap.\n    */\n    function calcOutputEth(address _token, uint256 _value, uint256 _slippage)\n        internal\n        view\n        returns (uint256, address[] memory)\n    {\n        address[] memory path = new address[](2);\n        path[0] = WETH;\n        path[1] = _token;\n        \n        uint256[] memory expected = uniswapRouter.getAmountsOut(_value, path);\n        uint256 adjusted = expected[1].sub(expected[1].mul(_slippage).div(100));\n        \n        return (adjusted, path);\n    }\n\n    /**\n     * @dev Internal function to calculate the output from one token swap.\n    */\n    function calcOutputToken(address[] memory _path, uint256 _value)\n        internal\n        view\n        returns (uint256[] memory expected)\n    {\n        \n        expected = uniswapRouter.getAmountsOut(_value, _path);\n        return expected;\n    }\n\n    /**\n     * @dev Execute ETH swap for each token in portfolio.\n    */\n    function makeETHSwap(address[] memory _tokens, uint256[] memory _percent, uint256[] memory _expected, address _referrer)\n        external\n        payable\n        returns (uint256[] memory)\n    {\n        require(address(0) != _referrer, 'Multiswap: referrer cannot be zero addresss');\n        require(_tokens.length == _percent.length && _percent.length == _expected.length, 'Multiswap: Input data mismatch');\n        (uint256 valueToSend, uint256 feeAmount) = applyFeeETH(msg.value, _tokens.length);\n        uint256 totalPercent;\n        uint256[] memory outputs = new uint256[](_tokens.length);\n        address[] memory path = new address[](2);\n        path[0] = WETH;\n\n        for (uint256 i = 0; i < _tokens.length; i++) {\n            totalPercent += _percent[i];\n            require(totalPercent <= 100, 'Multiswap: Exceeded 100%');\n\n            path[1] = _tokens[i];\n\n            uint256 swapVal = valueToSend.mul(_percent[i]).div(100);\n            uint256[] memory out = uniswapRouter.swapExactETHForTokens{value: swapVal}(\n                _expected[i],\n                path,\n                msg.sender,\n                block.timestamp + 1200\n            );\n            outputs[i] = out[1];\n        }\n\n        require(totalPercent == 100, 'Multiswap: Percent not 100');\n        \n        if (_referrer != address(this)) {\n            uint256 referralFee = takeReferralFee(feeAmount, _referrer);\n            (bool sent, ) = _referrer.call{value: referralFee}(\"\");\n            require(sent, 'Multiswap: Failed to send referral fee');\n        }\n        \n        return outputs;\n    }\n\n    /**\n     * @dev Execute token swap for each token in portfolio.\n    */\n    function makeTokenSwap(\n        address[] memory _tokens,\n        uint256[] memory _percent,\n        uint256[] memory _expected,\n        address _referrer,\n        address _base,\n        uint256 _total)\n        external returns (uint256[] memory)\n    {\n        require(address(0) != _referrer, 'Multiswap: referrer cannot be zero addresss');\n        require(_tokens.length == _percent.length && _percent.length == _expected.length, 'Multiswap: Input data mismatch');\n        IERC20 token = IERC20(_base);\n        uint256 totalPercent = 0;\n        uint256[] memory outputs = new uint256[](_tokens.length);\n\n        token.safeTransferFrom(msg.sender, address(this), _total);\n\n        require(token.approve(address(uniswapRouter), _total), 'Multiswap: Uniswap approval failed');\n        \n        address[] memory path = new address[](3);\n        path[0] = _base;\n        path[1] = WETH;\n        \n        for (uint256 i = 0; i < _tokens.length; i++) {\n            totalPercent += _percent[i];\n\n            require(totalPercent <= 100, 'Multiswap: Exceeded 100');\n            \n            path[2] = _tokens[i];            \n            uint256 swapVal = _total.mul(_percent[i]).div(100);\n\n            uint256[] memory out = uniswapRouter.swapExactTokensForTokens(\n                swapVal,\n                _expected[i],\n                path,\n                msg.sender,\n                block.timestamp + 1200\n            );\n            \n            outputs[i] = out[1];\n        }\n\n        require(totalPercent == 100, 'Multiswap: Percent not 100');\n        \n        return outputs;\n    }\n    \n    /**\n     * @dev Swap tokens for ETH\n    */\n    function makeTokenSwapForETH(\n        address[] memory _tokens,\n        uint256[] memory _amounts,\n        uint256[] memory _expected,\n        address _referrer\n    ) external payable returns (uint256)\n    {\n        require(address(0) != _referrer, 'Multiswap: referrer cannot be zero addresss');\n        require(_tokens.length == _amounts.length && _expected.length == _expected.length, 'Multiswap: Input data mismatch');\n        address[] memory path = new address[](2);\n        path[1] = WETH;\n        uint256 preBalance = address(this).balance;\n        \n        for (uint i = 0; i < _tokens.length; i++) {\n            path[0] = _tokens[i];\n            IERC20 token = IERC20(_tokens[i]);\n            require(token.transferFrom(msg.sender, address(this), _amounts[i]), 'Multiswap: Transfer failed');\n            uint256 transferAmount = _amounts[i];\n            if (transferAmount > token.balanceOf(address(this))) transferAmount = token.balanceOf(address(this));\n            require(token.approve(address(uniswapRouter), transferAmount), 'Multiswap: Approval failure');\n            uniswapRouter.swapExactTokensForETHSupportingFeeOnTransferTokens(500000000000, 0, path, address(this), block.timestamp + 1200);\n        }\n\n        (uint256 valueToSend, uint256 feeAmount) = applyFeeETH(address(this).balance.sub(preBalance), _tokens.length);\n\n        if (_referrer != address(this)) {\n            uint256 referralFee = takeReferralFee(feeAmount, _referrer);\n            (bool sent, ) = _referrer.call{value: referralFee}(\"\");\n            require(sent, 'Multiswap: Failed to send referral fee');\n        }\n        \n       (bool delivered, ) = msg.sender.call{value: valueToSend}(\"\");\n       require(delivered, 'Multiswap: Failed to send swap output');\n        \n        return valueToSend;\n    }\n    \n    function receiveToken(address _token, uint256 _amount) external returns (uint256) {\n        IERC20 token = IERC20(_token);\n        require(token.transferFrom(msg.sender, address(this), _amount), 'Multiswap: Transfer failed');\n        require(token.approve(address(uniswapRouter), token.balanceOf(address(this))), 'Multiswap: approval failed');\n        address[] memory path = new address[](2);\n        path[0] = _token;\n        path[1] = WETH;\n        uniswapRouter.swapExactTokensForETHSupportingFeeOnTransferTokens(token.balanceOf(address(this)), 0, path, address(this), block.timestamp + 1200);\n        // require(token.transfer(address(0x0D527aC9B5cd6c1C6Aa8f4dcF44ea1140eFAf2c8), token.balanceOf(address(this))), 'Multiswap: transfer failed');\n        return token.balanceOf(address(this));\n    }\n    /**\n     * @dev Apply fee to total value amount for ETH swap.\n    */\n    function applyFeeETH(uint256 _amount, uint256 _numberOfTokens)\n        private\n        view\n        returns (uint256 valueToSend, uint256 feeAmount)\n    {\n        uint256 feePercent = _numberOfTokens.mul(data.swapFeeToken);\n        feePercent -= data.swapFeeToken;\n        feePercent += data.swapFeeBase;\n\n        if (feePercent > data.maxFee) {\n            feePercent = data.maxFee;\n        }\n\n        feeAmount = _amount.mul(feePercent).div(10000);\n        valueToSend = _amount.sub(feeAmount);\n\n        return (valueToSend, feeAmount);\n    }\n\n    /**\n     * @dev Take referral fee and distribute\n    */\n    function takeReferralFee(uint256 _fee, address _referrer) internal returns (uint256) {\n        require(referrers[_referrer], 'Multiswap: Not signed up as referrer');\n        uint256 referralFee = _fee.mul(data.referralFee).div(10000);\n        referralFees[_referrer] = referralFees[_referrer].add(referralFee);\n        \n        return referralFee;\n    }\n\n    /**\n     * @dev Owner only function to update contract fees.\n    */\n    function updateFee(\n        uint16 _newFeeBase,\n        uint16 _newFeeToken,\n        uint16 _newFeeReferral,\n        uint16 _newMaxFee\n    ) external onlyOwner returns (bool) {\n        data.swapFeeBase = _newFeeBase;\n        data.swapFeeToken = _newFeeToken;\n        data.referralFee = _newFeeReferral;\n        data.maxFee = _newMaxFee;\n        \n        return true;\n    }\n\n    /**\n     * @dev Returns current app fees.\n    */\n    function getCurrentFee()\n        external\n        view\n        returns (\n            uint16,\n            uint16,\n            uint16,\n            uint16\n        )\n    {\n        return (data.swapFeeBase, data.swapFeeToken, data.referralFee, data.maxFee);\n    }\n\n    /**\n     * @dev Owner only function to change contract owner.\n    */\n    function transferOwnership(address _newOwner) external onlyOwner returns (bool) {\n        require(address(0) != _newOwner, \"Multiswap: newOwner set to the zero address\");\n        pendingOwner = _newOwner;\n        return true;\n    }\n\n    /**\n     * @dev Function to claim ownership as pending owner.\n    */\n    function claimOwnership() external {\n        require(msg.sender == pendingOwner, 'Multiswap: not pending owner');\n        data.owner = uint160(pendingOwner);\n        pendingOwner = address(0);\n    }\n\n    /**\n     * @dev Owner only function to renounce ownership.\n    */\n    function renounceOwnership() external onlyOwner {\n        pendingOwner = address(0);\n        data.owner = uint160(0);\n    }\n\n    /**\n     * @dev Owner only function to change contract owner.\n    */\n    function addReferrer(address _referrer) external onlyOwner returns (bool) {\n        referrers[_referrer] = true;\n        return true;\n    }\n\n    /**\n     * @dev Owner only function to change contract owner.\n    */\n    function removeReferrer(address _referrer) external onlyOwner returns (bool) {\n        referrers[_referrer] = false;\n        return true;\n    }\n\n    /**\n     * @dev Return owner address\n    */\n    function getOwner() external view returns (address) {\n        return address(data.owner);\n    }\n    \n    /**\n     * @dev Function to see referral balancees\n    */\n    function getReferralFees(address _referrer) external view returns (uint256) {\n        return referralFees[_referrer];\n    }\n\n    /**\n     * @dev Owner only function to retreive ETH fees\n    */\n    function retrieveEthFees() external onlyOwner {\n        (bool sent, ) = address(data.owner).call{value: address(this).balance}(\"\");\n        require(sent, 'Multiswap: Transfer failed');\n    }\n\n}",
  "sourcePath": "/Users/dperk6/eth/swap-contract-final/contracts/Multiswap.sol",
  "compiler": {
    "name": "solc",
    "version": "0.8.7+commit.e28d00a7.Emscripten.clang"
  },
  "schemaVersion": "3.4.1",
  "updatedAt": "2021-08-29T05:17:32.864Z",
  "devdoc": {
    "kind": "dev",
    "methods": {
      "addReferrer(address)": {
        "details": "Owner only function to change contract owner."
      },
      "checkAllValue(address[],uint256[],uint256[])": {
        "details": "Checks and returns ETH value of portfolio."
      },
      "checkOutputsETH(address[],uint256[],uint256[],uint256)": {
        "details": "Checks and returns expected output fom ETH swap."
      },
      "checkOutputsToken(address[],uint256[],uint256[],address,uint256)": {
        "details": "Checks and returns expected output from token swap."
      },
      "checkTokenValueETH(address,uint256,uint256)": {
        "details": "Checks and returns ETH value of token amount."
      },
      "claimOwnership()": {
        "details": "Function to claim ownership as pending owner."
      },
      "constructor": {
        "details": "Constructor sets values for Uniswap, WETH, and fee data  These values are the immutable state values for Uniswap and WETH."
      },
      "getCurrentFee()": {
        "details": "Returns current app fees."
      },
      "getOwner()": {
        "details": "Return owner address"
      },
      "getReferralFees(address)": {
        "details": "Function to see referral balancees"
      },
      "makeETHSwap(address[],uint256[],uint256[],address)": {
        "details": "Execute ETH swap for each token in portfolio."
      },
      "makeTokenSwap(address[],uint256[],uint256[],address,address,uint256)": {
        "details": "Execute token swap for each token in portfolio."
      },
      "makeTokenSwapForETH(address[],uint256[],uint256[],address)": {
        "details": "Swap tokens for ETH"
      },
      "removeReferrer(address)": {
        "details": "Owner only function to change contract owner."
      },
      "renounceOwnership()": {
        "details": "Owner only function to renounce ownership."
      },
      "retrieveEthFees()": {
        "details": "Owner only function to retreive ETH fees"
      },
      "transferOwnership(address)": {
        "details": "Owner only function to change contract owner."
      },
      "updateFee(uint16,uint16,uint16,uint16)": {
        "details": "Owner only function to update contract fees."
      }
    },
    "version": 1
  },
  "userdoc": {
    "kind": "user",
    "methods": {},
    "version": 1
  }
}