{
  "contractName": "MultiswapCM",
  "abi": [
    {
      "inputs": [],
      "stateMutability": "nonpayable",
      "type": "constructor"
    },
    {
      "inputs": [
        {
          "internalType": "address[]",
          "name": "_tokens",
          "type": "address[]"
        },
        {
          "internalType": "uint256[]",
          "name": "_percent",
          "type": "uint256[]"
        },
        {
          "internalType": "uint256",
          "name": "_total",
          "type": "uint256"
        }
      ],
      "name": "checkOutputsEth",
      "outputs": [
        {
          "internalType": "address[]",
          "name": "",
          "type": "address[]"
        },
        {
          "internalType": "uint256[]",
          "name": "",
          "type": "uint256[]"
        }
      ],
      "stateMutability": "view",
      "type": "function"
    },
    {
      "inputs": [
        {
          "internalType": "address[]",
          "name": "_tokens",
          "type": "address[]"
        },
        {
          "internalType": "uint256[]",
          "name": "_percent",
          "type": "uint256[]"
        },
        {
          "internalType": "address",
          "name": "_base",
          "type": "address"
        },
        {
          "internalType": "uint256",
          "name": "_total",
          "type": "uint256"
        }
      ],
      "name": "checkOutputsToken",
      "outputs": [
        {
          "internalType": "address[]",
          "name": "",
          "type": "address[]"
        },
        {
          "internalType": "uint256[]",
          "name": "",
          "type": "uint256[]"
        }
      ],
      "stateMutability": "view",
      "type": "function"
    },
    {
      "inputs": [
        {
          "internalType": "address",
          "name": "_token",
          "type": "address"
        },
        {
          "internalType": "uint256",
          "name": "_amount",
          "type": "uint256"
        }
      ],
      "name": "checkTokenValueETH",
      "outputs": [
        {
          "internalType": "uint256",
          "name": "",
          "type": "uint256"
        }
      ],
      "stateMutability": "view",
      "type": "function"
    },
    {
      "inputs": [
        {
          "internalType": "address[]",
          "name": "_tokens",
          "type": "address[]"
        },
        {
          "internalType": "uint256[]",
          "name": "_amounts",
          "type": "uint256[]"
        }
      ],
      "name": "checkAllValue",
      "outputs": [
        {
          "internalType": "uint256",
          "name": "",
          "type": "uint256"
        }
      ],
      "stateMutability": "view",
      "type": "function"
    },
    {
      "inputs": [
        {
          "internalType": "address[]",
          "name": "_tokens",
          "type": "address[]"
        },
        {
          "internalType": "uint256[]",
          "name": "_percent",
          "type": "uint256[]"
        }
      ],
      "name": "makeETHSwap",
      "outputs": [
        {
          "internalType": "uint256[]",
          "name": "",
          "type": "uint256[]"
        }
      ],
      "stateMutability": "payable",
      "type": "function"
    },
    {
      "inputs": [
        {
          "internalType": "address[]",
          "name": "_tokens",
          "type": "address[]"
        },
        {
          "internalType": "uint256[]",
          "name": "_percent",
          "type": "uint256[]"
        },
        {
          "internalType": "address",
          "name": "_base",
          "type": "address"
        },
        {
          "internalType": "uint256",
          "name": "_total",
          "type": "uint256"
        }
      ],
      "name": "makeTokenSwap",
      "outputs": [],
      "stateMutability": "payable",
      "type": "function"
    },
    {
      "inputs": [
        {
          "internalType": "address[]",
          "name": "_tokens",
          "type": "address[]"
        },
        {
          "internalType": "uint256[]",
          "name": "_amounts",
          "type": "uint256[]"
        },
        {
          "internalType": "address",
          "name": "sender",
          "type": "address"
        }
      ],
      "name": "makeTokenSwapForETH",
      "outputs": [],
      "stateMutability": "nonpayable",
      "type": "function"
    },
    {
      "inputs": [
        {
          "internalType": "uint64",
          "name": "newFee",
          "type": "uint64"
        }
      ],
      "name": "updateFee",
      "outputs": [
        {
          "internalType": "bool",
          "name": "",
          "type": "bool"
        }
      ],
      "stateMutability": "nonpayable",
      "type": "function"
    },
    {
      "inputs": [],
      "name": "getCurrentFee",
      "outputs": [
        {
          "internalType": "uint64",
          "name": "",
          "type": "uint64"
        }
      ],
      "stateMutability": "view",
      "type": "function"
    },
    {
      "inputs": [
        {
          "internalType": "address",
          "name": "newOwner",
          "type": "address"
        }
      ],
      "name": "changeOwner",
      "outputs": [
        {
          "internalType": "bool",
          "name": "",
          "type": "bool"
        }
      ],
      "stateMutability": "nonpayable",
      "type": "function"
    },
    {
      "inputs": [],
      "name": "getOwner",
      "outputs": [
        {
          "internalType": "address",
          "name": "",
          "type": "address"
        }
      ],
      "stateMutability": "view",
      "type": "function"
    },
    {
      "inputs": [],
      "name": "retrieveEthFees",
      "outputs": [],
      "stateMutability": "nonpayable",
      "type": "function"
    }
  ],
  "bytecode": "0x60c060405234801561001057600080fd5b50737a250d5630b4cf539739df2c5dacb4c659f2488d73ffffffffffffffffffffffffffffffffffffffff1660a08173ffffffffffffffffffffffffffffffffffffffff1660601b8152505073c02aaa39b223fe8d0a0e5c4f27ead9083c756cc273ffffffffffffffffffffffffffffffffffffffff1660808173ffffffffffffffffffffffffffffffffffffffff1660601b81525050336000800160006101000a81548173ffffffffffffffffffffffffffffffffffffffff021916908373ffffffffffffffffffffffffffffffffffffffff16021790555066038d7ea4c680006000800160146101000a81548167ffffffffffffffff021916908367ffffffffffffffff16021790555060805160601c60a05160601c613c936101b0600039600081816108d9015281816109ad01528181610a9f01528181611075015281816111290152818161162601528181611a4801528181611e5501528181611f070152818161221101526125a201526000818161065201528181610e210152818161148001528181611c010152818161217a01526124960152613c936000f3fe6080604052600436106100a75760003560e01c80639cefb40e116100645780639cefb40e146101c2578063a6f9dae114610200578063f10ff5851461023d578063f35c6ff61461027a578063f70d936214610296578063fe369656146102c1576100a7565b806327e7dacf146100ac5780632b2747ef146100ea5780635046171414610127578063893d20e81461015057806391a3cd871461017b57806394cd944214610192575b600080fd5b3480156100b857600080fd5b506100d360048036038101906100ce9190612e09565b6102fe565b6040516100e19291906132ca565b60405180910390f35b3480156100f657600080fd5b50610111600480360381019061010c9190612ef2565b610514565b60405161011e9190613323565b60405180910390f35b34801561013357600080fd5b5061014e60048036038101906101499190612cf7565b6105dc565b005b34801561015c57600080fd5b50610165610bf4565b604051610172919061324f565b60405180910390f35b34801561018757600080fd5b50610190610c20565b005b6101ac60048036038101906101a79190612c8b565b610d25565b6040516101b99190613301565b60405180910390f35b3480156101ce57600080fd5b506101e960048036038101906101e49190612d76565b61130f565b6040516101f79291906132ca565b60405180910390f35b34801561020c57600080fd5b5061022760048036038101906102229190612c26565b6117f6565b6040516102349190613323565b60405180910390f35b34801561024957600080fd5b50610264600480360381019061025f9190612c8b565b6118d6565b60405161027191906134a0565b60405180910390f35b610294600480360381019061028f9190612d76565b61199a565b005b3480156102a257600080fd5b506102ab61206e565b6040516102b891906135eb565b60405180910390f35b3480156102cd57600080fd5b506102e860048036038101906102e39190612c4f565b61208e565b6040516102f591906134a0565b60405180910390f35b606080835185511461030f57600080fd5b60008061031d85885161230d565b90506000875167ffffffffffffffff811115610362577f4e487b7100000000000000000000000000000000000000000000000000000000600052604160045260246000fd5b6040519080825280602002602001820160405280156103905781602001602082028036833780820191505090505b50905060005b88518110156104f5578781815181106103d8577f4e487b7100000000000000000000000000000000000000000000000000000000600052603260045260246000fd5b6020026020010151846103eb9190613727565b935061049c898281518110610429577f4e487b7100000000000000000000000000000000000000000000000000000000600052603260045260246000fd5b602002602001015161049760646104898c8681518110610472577f4e487b7100000000000000000000000000000000000000000000000000000000600052603260045260246000fd5b60200260200101518861235790919063ffffffff16565b6123d290919063ffffffff16565b61241c565b508282815181106104d6577f4e487b7100000000000000000000000000000000000000000000000000000000600052603260045260246000fd5b60200260200101818152505080806104ed9061390e565b915050610396565b506064831461050357600080fd5b878194509450505050935093915050565b60008060000160009054906101000a900473ffffffffffffffffffffffffffffffffffffffff1673ffffffffffffffffffffffffffffffffffffffff163373ffffffffffffffffffffffffffffffffffffffff16146105a8576040517f08c379a000000000000000000000000000000000000000000000000000000000815260040161059f90613400565b60405180910390fd5b816000800160146101000a81548167ffffffffffffffff021916908367ffffffffffffffff16021790555060019050919050565b6000600267ffffffffffffffff81111561061f577f4e487b7100000000000000000000000000000000000000000000000000000000600052604160045260246000fd5b60405190808252806020026020018201604052801561064d5781602001602082028036833780820191505090505b5090507f0000000000000000000000000000000000000000000000000000000000000000816001815181106106ab577f4e487b7100000000000000000000000000000000000000000000000000000000600052603260045260246000fd5b602002602001019073ffffffffffffffffffffffffffffffffffffffff16908173ffffffffffffffffffffffffffffffffffffffff168152505060005b8451811015610bed5784818151811061072a577f4e487b7100000000000000000000000000000000000000000000000000000000600052603260045260246000fd5b60200260200101518260008151811061076c577f4e487b7100000000000000000000000000000000000000000000000000000000600052603260045260246000fd5b602002602001019073ffffffffffffffffffffffffffffffffffffffff16908173ffffffffffffffffffffffffffffffffffffffff168152505060008582815181106107e1577f4e487b7100000000000000000000000000000000000000000000000000000000600052603260045260246000fd5b602002602001015190508073ffffffffffffffffffffffffffffffffffffffff166323b872dd3330888681518110610842577f4e487b7100000000000000000000000000000000000000000000000000000000600052603260045260246000fd5b60200260200101516040518463ffffffff1660e01b81526004016108689392919061326a565b602060405180830381600087803b15801561088257600080fd5b505af1158015610896573d6000803e3d6000fd5b505050506040513d601f19601f820116820180604052508101906108ba9190612ec9565b508073ffffffffffffffffffffffffffffffffffffffff1663095ea7b37f0000000000000000000000000000000000000000000000000000000000000000878581518110610931577f4e487b7100000000000000000000000000000000000000000000000000000000600052603260045260246000fd5b60200260200101516040518363ffffffff1660e01b81526004016109569291906132a1565b602060405180830381600087803b15801561097057600080fd5b505af1158015610984573d6000803e3d6000fd5b505050506040513d601f19601f820116820180604052508101906109a89190612ec9565b5060007f000000000000000000000000000000000000000000000000000000000000000073ffffffffffffffffffffffffffffffffffffffff1663d06ca61f878581518110610a20577f4e487b7100000000000000000000000000000000000000000000000000000000600052603260045260246000fd5b6020026020010151866040518363ffffffff1660e01b8152600401610a469291906134bb565b60006040518083038186803b158015610a5e57600080fd5b505afa158015610a72573d6000803e3d6000fd5b505050506040513d6000823e3d601f19601f82011682018060405250810190610a9b9190612e88565b90507f000000000000000000000000000000000000000000000000000000000000000073ffffffffffffffffffffffffffffffffffffffff166318cbafe582600081518110610b13577f4e487b7100000000000000000000000000000000000000000000000000000000600052603260045260246000fd5b602002602001015183600181518110610b55577f4e487b7100000000000000000000000000000000000000000000000000000000600052603260045260246000fd5b60200260200101518789426040518663ffffffff1660e01b8152600401610b80959493929190613591565b600060405180830381600087803b158015610b9a57600080fd5b505af1158015610bae573d6000803e3d6000fd5b505050506040513d6000823e3d601f19601f82011682018060405250810190610bd79190612e88565b5050508080610be59061390e565b9150506106e8565b5050505050565b60008060000160009054906101000a900473ffffffffffffffffffffffffffffffffffffffff16905090565b6000800160009054906101000a900473ffffffffffffffffffffffffffffffffffffffff1673ffffffffffffffffffffffffffffffffffffffff163373ffffffffffffffffffffffffffffffffffffffff1614610cb2576040517f08c379a0000000000000000000000000000000000000000000000000000000008152600401610ca990613400565b60405180910390fd5b60008060000160009054906101000a900473ffffffffffffffffffffffffffffffffffffffff1690508073ffffffffffffffffffffffffffffffffffffffff166108fc479081150290604051600060405180830381858888f19350505050158015610d21573d6000803e3d6000fd5b5050565b60606000610d3434855161230d565b9050600080855167ffffffffffffffff811115610d7a577f4e487b7100000000000000000000000000000000000000000000000000000000600052604160045260246000fd5b604051908082528060200260200182016040528015610da85781602001602082028036833780820191505090505b5090506000600267ffffffffffffffff811115610dee577f4e487b7100000000000000000000000000000000000000000000000000000000600052604160045260246000fd5b604051908082528060200260200182016040528015610e1c5781602001602082028036833780820191505090505b5090507f000000000000000000000000000000000000000000000000000000000000000081600081518110610e7a577f4e487b7100000000000000000000000000000000000000000000000000000000600052603260045260246000fd5b602002602001019073ffffffffffffffffffffffffffffffffffffffff16908173ffffffffffffffffffffffffffffffffffffffff168152505060005b87518110156112be57868181518110610ef9577f4e487b7100000000000000000000000000000000000000000000000000000000600052603260045260246000fd5b602002602001015184610f0c9190613727565b93506064841115610f52576040517f08c379a0000000000000000000000000000000000000000000000000000000008152600401610f4990613360565b60405180910390fd5b878181518110610f8b577f4e487b7100000000000000000000000000000000000000000000000000000000600052603260045260246000fd5b602002602001015182600181518110610fcd577f4e487b7100000000000000000000000000000000000000000000000000000000600052603260045260246000fd5b602002602001019073ffffffffffffffffffffffffffffffffffffffff16908173ffffffffffffffffffffffffffffffffffffffff1681525050600061106f60646110618a858151811061104a577f4e487b7100000000000000000000000000000000000000000000000000000000600052603260045260246000fd5b60200260200101518961235790919063ffffffff16565b6123d290919063ffffffff16565b905060007f000000000000000000000000000000000000000000000000000000000000000073ffffffffffffffffffffffffffffffffffffffff1663d06ca61f83866040518363ffffffff1660e01b81526004016110ce9291906134bb565b60006040518083038186803b1580156110e657600080fd5b505afa1580156110fa573d6000803e3d6000fd5b505050506040513d6000823e3d601f19601f820116820180604052508101906111239190612e88565b905060007f000000000000000000000000000000000000000000000000000000000000000073ffffffffffffffffffffffffffffffffffffffff16637ff36ab5848460018151811061119e577f4e487b7100000000000000000000000000000000000000000000000000000000600052603260045260246000fd5b60200260200101518833426040518663ffffffff1660e01b81526004016111c894939291906134eb565b6000604051808303818588803b1580156111e157600080fd5b505af11580156111f5573d6000803e3d6000fd5b50505050506040513d6000823e3d601f19601f8201168201806040525081019061121f9190612e88565b90508060018151811061125b577f4e487b7100000000000000000000000000000000000000000000000000000000600052603260045260246000fd5b602002602001015186858151811061129c577f4e487b7100000000000000000000000000000000000000000000000000000000600052603260045260246000fd5b60200260200101818152505050505080806112b69061390e565b915050610eb7565b5060648314611302576040517f08c379a00000000000000000000000000000000000000000000000000000000081526004016112f9906133c0565b60405180910390fd5b8194505050505092915050565b606080845186511461132057600080fd5b600080875167ffffffffffffffff811115611364577f4e487b7100000000000000000000000000000000000000000000000000000000600052604160045260246000fd5b6040519080825280602002602001820160405280156113925781602001602082028036833780820191505090505b5090506000600367ffffffffffffffff8111156113d8577f4e487b7100000000000000000000000000000000000000000000000000000000600052604160045260246000fd5b6040519080825280602002602001820160405280156114065781602001602082028036833780820191505090505b5090508681600081518110611444577f4e487b7100000000000000000000000000000000000000000000000000000000600052603260045260246000fd5b602002602001019073ffffffffffffffffffffffffffffffffffffffff16908173ffffffffffffffffffffffffffffffffffffffff16815250507f0000000000000000000000000000000000000000000000000000000000000000816001815181106114d9577f4e487b7100000000000000000000000000000000000000000000000000000000600052603260045260246000fd5b602002602001019073ffffffffffffffffffffffffffffffffffffffff16908173ffffffffffffffffffffffffffffffffffffffff168152505060005b89518110156117d657888181518110611558577f4e487b7100000000000000000000000000000000000000000000000000000000600052603260045260246000fd5b60200260200101518461156b9190613727565b93508981815181106115a6577f4e487b7100000000000000000000000000000000000000000000000000000000600052603260045260246000fd5b6020026020010151826002815181106115e8577f4e487b7100000000000000000000000000000000000000000000000000000000600052603260045260246000fd5b602002602001019073ffffffffffffffffffffffffffffffffffffffff16908173ffffffffffffffffffffffffffffffffffffffff168152505060007f000000000000000000000000000000000000000000000000000000000000000073ffffffffffffffffffffffffffffffffffffffff1663d06ca61f6116c660646116b88e87815181106116a1577f4e487b7100000000000000000000000000000000000000000000000000000000600052603260045260246000fd5b60200260200101518d61235790919063ffffffff16565b6123d290919063ffffffff16565b856040518363ffffffff1660e01b81526004016116e49291906134bb565b60006040518083038186803b1580156116fc57600080fd5b505afa158015611710573d6000803e3d6000fd5b505050506040513d6000823e3d601f19601f820116820180604052508101906117399190612e88565b905080600181518110611775577f4e487b7100000000000000000000000000000000000000000000000000000000600052603260045260246000fd5b60200260200101518483815181106117b6577f4e487b7100000000000000000000000000000000000000000000000000000000600052603260045260246000fd5b6020026020010181815250505080806117ce9061390e565b915050611516565b50606483146117e457600080fd5b88829450945050505094509492505050565b60008060000160009054906101000a900473ffffffffffffffffffffffffffffffffffffffff1673ffffffffffffffffffffffffffffffffffffffff163373ffffffffffffffffffffffffffffffffffffffff161461188a576040517f08c379a000000000000000000000000000000000000000000000000000000000815260040161188190613400565b60405180910390fd5b816000800160006101000a81548173ffffffffffffffffffffffffffffffffffffffff021916908373ffffffffffffffffffffffffffffffffffffffff16021790555060019050919050565b60008060005b845181101561198f5761196f858281518110611921577f4e487b7100000000000000000000000000000000000000000000000000000000600052603260045260246000fd5b6020026020010151858381518110611962577f4e487b7100000000000000000000000000000000000000000000000000000000600052603260045260246000fd5b602002602001015161208e565b8261197a9190613727565b915080806119879061390e565b9150506118dc565b508091505092915050565b6119b566038d7ea4c68000855161235790919063ffffffff16565b34146119f6576040517f08c379a00000000000000000000000000000000000000000000000000000000081526004016119ed90613440565b60405180910390fd5b60008290506000611a2a3330858573ffffffffffffffffffffffffffffffffffffffff166126a2909392919063ffffffff16565b8173ffffffffffffffffffffffffffffffffffffffff1663095ea7b37f0000000000000000000000000000000000000000000000000000000000000000856040518363ffffffff1660e01b8152600401611a859291906132a1565b602060405180830381600087803b158015611a9f57600080fd5b505af1158015611ab3573d6000803e3d6000fd5b505050506040513d601f19601f82011682018060405250810190611ad79190612ec9565b611b16576040517f08c379a0000000000000000000000000000000000000000000000000000000008152600401611b0d90613380565b60405180910390fd5b6000600367ffffffffffffffff811115611b59577f4e487b7100000000000000000000000000000000000000000000000000000000600052604160045260246000fd5b604051908082528060200260200182016040528015611b875781602001602082028036833780820191505090505b5090508481600081518110611bc5577f4e487b7100000000000000000000000000000000000000000000000000000000600052603260045260246000fd5b602002602001019073ffffffffffffffffffffffffffffffffffffffff16908173ffffffffffffffffffffffffffffffffffffffff16815250507f000000000000000000000000000000000000000000000000000000000000000081600181518110611c5a577f4e487b7100000000000000000000000000000000000000000000000000000000600052603260045260246000fd5b602002602001019073ffffffffffffffffffffffffffffffffffffffff16908173ffffffffffffffffffffffffffffffffffffffff168152505060005b875181101561202157868181518110611cd9577f4e487b7100000000000000000000000000000000000000000000000000000000600052603260045260246000fd5b602002602001015183611cec9190613727565b92506064831115611d32576040517f08c379a0000000000000000000000000000000000000000000000000000000008152600401611d2990613480565b60405180910390fd5b878181518110611d6b577f4e487b7100000000000000000000000000000000000000000000000000000000600052603260045260246000fd5b602002602001015182600281518110611dad577f4e487b7100000000000000000000000000000000000000000000000000000000600052603260045260246000fd5b602002602001019073ffffffffffffffffffffffffffffffffffffffff16908173ffffffffffffffffffffffffffffffffffffffff16815250506000611e4f6064611e418a8581518110611e2a577f4e487b7100000000000000000000000000000000000000000000000000000000600052603260045260246000fd5b60200260200101518961235790919063ffffffff16565b6123d290919063ffffffff16565b905060007f000000000000000000000000000000000000000000000000000000000000000073ffffffffffffffffffffffffffffffffffffffff1663d06ca61f83866040518363ffffffff1660e01b8152600401611eae9291906134bb565b60006040518083038186803b158015611ec657600080fd5b505afa158015611eda573d6000803e3d6000fd5b505050506040513d6000823e3d601f19601f82011682018060405250810190611f039190612e88565b90507f000000000000000000000000000000000000000000000000000000000000000073ffffffffffffffffffffffffffffffffffffffff166338ed173982600081518110611f7b577f4e487b7100000000000000000000000000000000000000000000000000000000600052603260045260246000fd5b602002602001015160008733600f42611f949190613727565b6040518663ffffffff1660e01b8152600401611fb4959493929190613537565b600060405180830381600087803b158015611fce57600080fd5b505af1158015611fe2573d6000803e3d6000fd5b505050506040513d6000823e3d601f19601f8201168201806040525081019061200b9190612e88565b50505080806120199061390e565b915050611c97565b5060648214612065576040517f08c379a000000000000000000000000000000000000000000000000000000000815260040161205c906133c0565b60405180910390fd5b50505050505050565b60008060000160149054906101000a900467ffffffffffffffff16905090565b600080600267ffffffffffffffff8111156120d2577f4e487b7100000000000000000000000000000000000000000000000000000000600052604160045260246000fd5b6040519080825280602002602001820160405280156121005781602001602082028036833780820191505090505b509050838160008151811061213e577f4e487b7100000000000000000000000000000000000000000000000000000000600052603260045260246000fd5b602002602001019073ffffffffffffffffffffffffffffffffffffffff16908173ffffffffffffffffffffffffffffffffffffffff16815250507f0000000000000000000000000000000000000000000000000000000000000000816001815181106121d3577f4e487b7100000000000000000000000000000000000000000000000000000000600052603260045260246000fd5b602002602001019073ffffffffffffffffffffffffffffffffffffffff16908173ffffffffffffffffffffffffffffffffffffffff168152505060007f000000000000000000000000000000000000000000000000000000000000000073ffffffffffffffffffffffffffffffffffffffff1663d06ca61f85846040518363ffffffff1660e01b815260040161226a9291906134bb565b60006040518083038186803b15801561228257600080fd5b505afa158015612296573d6000803e3d6000fd5b505050506040513d6000823e3d601f19601f820116820180604052508101906122bf9190612e88565b9050806001815181106122fb577f4e487b7100000000000000000000000000000000000000000000000000000000600052603260045260246000fd5b60200260200101519250505092915050565b60006123446000800160149054906101000a900467ffffffffffffffff1667ffffffffffffffff168361235790919063ffffffff16565b8361234f9190613808565b905092915050565b60008083141561236a57600090506123cc565b6000828461237891906137ae565b9050828482612387919061377d565b146123c7576040517f08c379a00000000000000000000000000000000000000000000000000000000081526004016123be906133e0565b60405180910390fd5b809150505b92915050565b600061241483836040518060400160405280601a81526020017f536166654d6174683a206469766973696f6e206279207a65726f00000000000081525061272b565b905092915050565b600060606000600267ffffffffffffffff811115612463577f4e487b7100000000000000000000000000000000000000000000000000000000600052604160045260246000fd5b6040519080825280602002602001820160405280156124915781602001602082028036833780820191505090505b5090507f0000000000000000000000000000000000000000000000000000000000000000816000815181106124ef577f4e487b7100000000000000000000000000000000000000000000000000000000600052603260045260246000fd5b602002602001019073ffffffffffffffffffffffffffffffffffffffff16908173ffffffffffffffffffffffffffffffffffffffff16815250508481600181518110612564577f4e487b7100000000000000000000000000000000000000000000000000000000600052603260045260246000fd5b602002602001019073ffffffffffffffffffffffffffffffffffffffff16908173ffffffffffffffffffffffffffffffffffffffff168152505060007f000000000000000000000000000000000000000000000000000000000000000073ffffffffffffffffffffffffffffffffffffffff1663d06ca61f86846040518363ffffffff1660e01b81526004016125fb9291906134bb565b60006040518083038186803b15801561261357600080fd5b505afa158015612627573d6000803e3d6000fd5b505050506040513d6000823e3d601f19601f820116820180604052508101906126509190612e88565b90508060018151811061268c577f4e487b7100000000000000000000000000000000000000000000000000000000600052603260045260246000fd5b6020026020010151829350935050509250929050565b612725846323b872dd60e01b8585856040516024016126c39392919061326a565b604051602081830303815290604052907bffffffffffffffffffffffffffffffffffffffffffffffffffffffff19166020820180517bffffffffffffffffffffffffffffffffffffffffffffffffffffffff838183161783525050505061278e565b50505050565b60008083118290612772576040517f08c379a0000000000000000000000000000000000000000000000000000000008152600401612769919061333e565b60405180910390fd5b5060008385612781919061377d565b9050809150509392505050565b60006127f0826040518060400160405280602081526020017f5361666545524332303a206c6f772d6c6576656c2063616c6c206661696c65648152508573ffffffffffffffffffffffffffffffffffffffff166128559092919063ffffffff16565b905060008151111561285057808060200190518101906128109190612ec9565b61284f576040517f08c379a000000000000000000000000000000000000000000000000000000000815260040161284690613460565b60405180910390fd5b5b505050565b6060612864848460008561286d565b90509392505050565b6060824710156128b2576040517f08c379a00000000000000000000000000000000000000000000000000000000081526004016128a9906133a0565b60405180910390fd5b6128bb85612981565b6128fa576040517f08c379a00000000000000000000000000000000000000000000000000000000081526004016128f190613420565b60405180910390fd5b6000808673ffffffffffffffffffffffffffffffffffffffff1685876040516129239190613238565b60006040518083038185875af1925050503d8060008114612960576040519150601f19603f3d011682016040523d82523d6000602084013e612965565b606091505b5091509150612975828286612994565b92505050949350505050565b600080823b905060008111915050919050565b606083156129a4578290506129f4565b6000835111156129b75782518084602001fd5b816040517f08c379a00000000000000000000000000000000000000000000000000000000081526004016129eb919061333e565b60405180910390fd5b9392505050565b6000612a0e612a098461362b565b613606565b90508083825260208201905082856020860282011115612a2d57600080fd5b60005b85811015612a5d5781612a438882612b3f565b845260208401935060208301925050600181019050612a30565b5050509392505050565b6000612a7a612a7584613657565b613606565b90508083825260208201905082856020860282011115612a9957600080fd5b60005b85811015612ac95781612aaf8882612be7565b845260208401935060208301925050600181019050612a9c565b5050509392505050565b6000612ae6612ae184613657565b613606565b90508083825260208201905082856020860282011115612b0557600080fd5b60005b85811015612b355781612b1b8882612bfc565b845260208401935060208301925050600181019050612b08565b5050509392505050565b600081359050612b4e81613c01565b92915050565b600082601f830112612b6557600080fd5b8135612b758482602086016129fb565b91505092915050565b600082601f830112612b8f57600080fd5b8135612b9f848260208601612a67565b91505092915050565b600082601f830112612bb957600080fd5b8151612bc9848260208601612ad3565b91505092915050565b600081519050612be181613c18565b92915050565b600081359050612bf681613c2f565b92915050565b600081519050612c0b81613c2f565b92915050565b600081359050612c2081613c46565b92915050565b600060208284031215612c3857600080fd5b6000612c4684828501612b3f565b91505092915050565b60008060408385031215612c6257600080fd5b6000612c7085828601612b3f565b9250506020612c8185828601612be7565b9150509250929050565b60008060408385031215612c9e57600080fd5b600083013567ffffffffffffffff811115612cb857600080fd5b612cc485828601612b54565b925050602083013567ffffffffffffffff811115612ce157600080fd5b612ced85828601612b7e565b9150509250929050565b600080600060608486031215612d0c57600080fd5b600084013567ffffffffffffffff811115612d2657600080fd5b612d3286828701612b54565b935050602084013567ffffffffffffffff811115612d4f57600080fd5b612d5b86828701612b7e565b9250506040612d6c86828701612b3f565b9150509250925092565b60008060008060808587031215612d8c57600080fd5b600085013567ffffffffffffffff811115612da657600080fd5b612db287828801612b54565b945050602085013567ffffffffffffffff811115612dcf57600080fd5b612ddb87828801612b7e565b9350506040612dec87828801612b3f565b9250506060612dfd87828801612be7565b91505092959194509250565b600080600060608486031215612e1e57600080fd5b600084013567ffffffffffffffff811115612e3857600080fd5b612e4486828701612b54565b935050602084013567ffffffffffffffff811115612e6157600080fd5b612e6d86828701612b7e565b9250506040612e7e86828701612be7565b9150509250925092565b600060208284031215612e9a57600080fd5b600082015167ffffffffffffffff811115612eb457600080fd5b612ec084828501612ba8565b91505092915050565b600060208284031215612edb57600080fd5b6000612ee984828501612bd2565b91505092915050565b600060208284031215612f0457600080fd5b6000612f1284828501612c11565b91505092915050565b6000612f278383612f4b565b60208301905092915050565b6000612f3f838361320b565b60208301905092915050565b612f548161383c565b82525050565b612f638161383c565b82525050565b6000612f74826136a3565b612f7e81856136e9565b9350612f8983613683565b8060005b83811015612fba578151612fa18882612f1b565b9750612fac836136cf565b925050600181019050612f8d565b5085935050505092915050565b6000612fd2826136ae565b612fdc81856136fa565b9350612fe783613693565b8060005b83811015613018578151612fff8882612f33565b975061300a836136dc565b925050600181019050612feb565b5085935050505092915050565b61302e8161384e565b82525050565b600061303f826136b9565b613049818561370b565b93506130598185602086016138aa565b80840191505092915050565b61306e81613898565b82525050565b600061307f826136c4565b6130898185613716565b93506130998185602086016138aa565b6130a2816139e4565b840191505092915050565b60006130ba600d83613716565b91506130c5826139f5565b602082019050919050565b60006130dd601783613716565b91506130e882613a1e565b602082019050919050565b6000613100602683613716565b915061310b82613a47565b604082019050919050565b6000613123600f83613716565b915061312e82613a96565b602082019050919050565b6000613146602183613716565b915061315182613abf565b604082019050919050565b6000613169600b83613716565b915061317482613b0e565b602082019050919050565b600061318c601d83613716565b915061319782613b37565b602082019050919050565b60006131af601183613716565b91506131ba82613b60565b602082019050919050565b60006131d2602a83613716565b91506131dd82613b89565b604082019050919050565b60006131f5600c83613716565b915061320082613bd8565b602082019050919050565b6132148161387a565b82525050565b6132238161387a565b82525050565b61323281613884565b82525050565b60006132448284613034565b915081905092915050565b60006020820190506132646000830184612f5a565b92915050565b600060608201905061327f6000830186612f5a565b61328c6020830185612f5a565b613299604083018461321a565b949350505050565b60006040820190506132b66000830185612f5a565b6132c3602083018461321a565b9392505050565b600060408201905081810360008301526132e48185612f69565b905081810360208301526132f88184612fc7565b90509392505050565b6000602082019050818103600083015261331b8184612fc7565b905092915050565b60006020820190506133386000830184613025565b92915050565b600060208201905081810360008301526133588184613074565b905092915050565b60006020820190508181036000830152613379816130ad565b9050919050565b60006020820190508181036000830152613399816130d0565b9050919050565b600060208201905081810360008301526133b9816130f3565b9050919050565b600060208201905081810360008301526133d981613116565b9050919050565b600060208201905081810360008301526133f981613139565b9050919050565b600060208201905081810360008301526134198161315c565b9050919050565b600060208201905081810360008301526134398161317f565b9050919050565b60006020820190508181036000830152613459816131a2565b9050919050565b60006020820190508181036000830152613479816131c5565b9050919050565b60006020820190508181036000830152613499816131e8565b9050919050565b60006020820190506134b5600083018461321a565b92915050565b60006040820190506134d0600083018561321a565b81810360208301526134e28184612f69565b90509392505050565b6000608082019050613500600083018761321a565b81810360208301526135128186612f69565b90506135216040830185612f5a565b61352e606083018461321a565b95945050505050565b600060a08201905061354c600083018861321a565b6135596020830187613065565b818103604083015261356b8186612f69565b905061357a6060830185612f5a565b613587608083018461321a565b9695505050505050565b600060a0820190506135a6600083018861321a565b6135b3602083018761321a565b81810360408301526135c58186612f69565b90506135d46060830185612f5a565b6135e1608083018461321a565b9695505050505050565b60006020820190506136006000830184613229565b92915050565b6000613610613621565b905061361c82826138dd565b919050565b6000604051905090565b600067ffffffffffffffff821115613646576136456139b5565b5b602082029050602081019050919050565b600067ffffffffffffffff821115613672576136716139b5565b5b602082029050602081019050919050565b6000819050602082019050919050565b6000819050602082019050919050565b600081519050919050565b600081519050919050565b600081519050919050565b600081519050919050565b6000602082019050919050565b6000602082019050919050565b600082825260208201905092915050565b600082825260208201905092915050565b600081905092915050565b600082825260208201905092915050565b60006137328261387a565b915061373d8361387a565b9250827fffffffffffffffffffffffffffffffffffffffffffffffffffffffffffffffff0382111561377257613771613957565b5b828201905092915050565b60006137888261387a565b91506137938361387a565b9250826137a3576137a2613986565b5b828204905092915050565b60006137b98261387a565b91506137c48361387a565b9250817fffffffffffffffffffffffffffffffffffffffffffffffffffffffffffffffff04831182151516156137fd576137fc613957565b5b828202905092915050565b60006138138261387a565b915061381e8361387a565b92508282101561383157613830613957565b5b828203905092915050565b60006138478261385a565b9050919050565b60008115159050919050565b600073ffffffffffffffffffffffffffffffffffffffff82169050919050565b6000819050919050565b600067ffffffffffffffff82169050919050565b60006138a38261387a565b9050919050565b60005b838110156138c85780820151818401526020810190506138ad565b838111156138d7576000848401525b50505050565b6138e6826139e4565b810181811067ffffffffffffffff82111715613905576139046139b5565b5b80604052505050565b60006139198261387a565b91507fffffffffffffffffffffffffffffffffffffffffffffffffffffffffffffffff82141561394c5761394b613957565b5b600182019050919050565b7f4e487b7100000000000000000000000000000000000000000000000000000000600052601160045260246000fd5b7f4e487b7100000000000000000000000000000000000000000000000000000000600052601260045260246000fd5b7f4e487b7100000000000000000000000000000000000000000000000000000000600052604160045260246000fd5b6000601f19601f8301169050919050565b7f4578636565646564203130302500000000000000000000000000000000000000600082015250565b7f556e697377617020617070726f76616c206661696c6564000000000000000000600082015250565b7f416464726573733a20696e73756666696369656e742062616c616e636520666f60008201527f722063616c6c0000000000000000000000000000000000000000000000000000602082015250565b7f50657263656e74206e6f74203130300000000000000000000000000000000000600082015250565b7f536166654d6174683a206d756c7469706c69636174696f6e206f766572666c6f60008201527f7700000000000000000000000000000000000000000000000000000000000000602082015250565b7f4e6f7420616c6c6f776564000000000000000000000000000000000000000000600082015250565b7f416464726573733a2063616c6c20746f206e6f6e2d636f6e7472616374000000600082015250565b7f53656e7420696d70726f70657220666565000000000000000000000000000000600082015250565b7f5361666545524332303a204552433230206f7065726174696f6e20646964206e60008201527f6f74207375636365656400000000000000000000000000000000000000000000602082015250565b7f4578636565646564203130300000000000000000000000000000000000000000600082015250565b613c0a8161383c565b8114613c1557600080fd5b50565b613c218161384e565b8114613c2c57600080fd5b50565b613c388161387a565b8114613c4357600080fd5b50565b613c4f81613884565b8114613c5a57600080fd5b5056fea2646970667358221220b5ba20d678c2c82792887c0c0629a0d5d3e3c8aee8dec16cc49d8aa42425799464736f6c63430008040033",
  "immutableReferences": {
    "1217": [
      {
        "length": 32,
        "start": 1618
      },
      {
        "length": 32,
        "start": 3617
      },
      {
        "length": 32,
        "start": 5248
      },
      {
        "length": 32,
        "start": 7169
      },
      {
        "length": 32,
        "start": 8570
      },
      {
        "length": 32,
        "start": 9366
      }
    ],
    "1220": [
      {
        "length": 32,
        "start": 2265
      },
      {
        "length": 32,
        "start": 2477
      },
      {
        "length": 32,
        "start": 2719
      },
      {
        "length": 32,
        "start": 4213
      },
      {
        "length": 32,
        "start": 4393
      },
      {
        "length": 32,
        "start": 5670
      },
      {
        "length": 32,
        "start": 6728
      },
      {
        "length": 32,
        "start": 7765
      },
      {
        "length": 32,
        "start": 7943
      },
      {
        "length": 32,
        "start": 8721
      },
      {
        "length": 32,
        "start": 9634
      }
    ]
  },
  "source": "// SPDX-License-Identifier: MIT\n\npragma solidity ^0.8.0;\n\nimport \"./interfaces/IUniswapV2Router02.sol\";\nimport \"./libraries/SafeMath.sol\";\nimport \"./libraries/SafeERC20.sol\";\n\ncontract MultiswapCM {\n    using SafeMath for uint256;\n    using SafeERC20 for IERC20;\n\n    // WETH Address\n    address private immutable WETH;\n\n    // Uniswap Router address defined on contract deploy to support multiple networks\n    IUniswapV2Router02 private immutable uniswapRouter;\n\n    // Data struct\n    struct ContractData {\n        uint160 owner;\n        uint64 swapFee;\n    }\n    \n    ContractData private data;\n\n    // Modifier for only owner functions\n    modifier onlyOwner {\n        require(msg.sender == address(data.owner), \"Not allowed\");\n        _;\n    }\n\n    /**\n     * @dev Constructor sets values for Uniswap, WETH, and fee data\n     * \n     * These values are the immutable state values for Uniswap and WETH.\n     *\n    */\n    constructor() {\n        uniswapRouter = IUniswapV2Router02(0x7a250d5630B4cF539739dF2C5dAcb4c659F2488D);\n        WETH = address(0xC02aaA39b223FE8D0A0e5C4F27eAD9083C756Cc2);\n        \n        data.owner = uint160(msg.sender);\n        data.swapFee = uint64(1000000000000000);\n    }\n\n    /**\n     * @dev Checks and returns expected output fom ETH swap.\n    */\n    function checkOutputsEth(\n        address[] memory _tokens,\n        uint256[] memory _percent,\n        uint256 _total\n    ) external view returns (address[] memory, uint256[] memory)\n    {\n        require(_tokens.length == _percent.length);\n\n        uint256 _totalPercent = 0;\n        uint256 valueToSend = applyFeeETH(_total, _tokens.length);\n\n        uint256[] memory _outputAmount = new uint256[](_tokens.length);\n\n        for (uint256 i = 0; i < _tokens.length; i++) {\n            _totalPercent += _percent[i];\n            (_outputAmount[i],) = calcOutputEth(\n                _tokens[i],\n                valueToSend.mul(_percent[i]).div(100)\n            );\n        }\n\n        require(_totalPercent == 100);\n\n        return (_tokens, _outputAmount);\n    }\n\n    /**\n     * @dev Checks and returns expected output from token swap.\n    */\n    function checkOutputsToken(\n        address[] memory _tokens,\n        uint256[] memory _percent,\n        address _base,\n        uint256 _total\n        ) external view returns (address[] memory, uint256[] memory)\n    {\n        require(_tokens.length == _percent.length);\n        \n        uint256 _totalPercent = 0;\n        uint256[] memory _outputAmount = new uint256[](_tokens.length);\n        address[] memory path = new address[](3);\n        path[0] = _base;\n        path[1] = WETH;\n        \n        for (uint256 i = 0; i < _tokens.length; i++) {\n            _totalPercent += _percent[i];\n            path[2] = _tokens[i];\n            uint256[] memory expected = uniswapRouter.getAmountsOut(_total.mul(_percent[i]).div(100), path);\n            _outputAmount[i] = uint256(expected[1]);\n        }\n        \n        require(_totalPercent == 100);\n        \n        return (_tokens, _outputAmount);\n    }\n    \n    /**\n     * @dev Checks and returns ETH value of token amount.\n    */\n    function checkTokenValueETH(address _token, uint256 _amount)\n        public\n        view\n        returns (uint256)\n    {\n        address[] memory path = new address[](2);\n        path[0] = _token;\n        path[1] = WETH;\n        uint256[] memory expected = uniswapRouter.getAmountsOut(_amount, path);\n        return expected[1];\n    }\n    \n    /**\n     * @dev Checks and returns ETH value of portfolio.\n    */\n    function checkAllValue(address[] memory _tokens, uint256[] memory _amounts)\n        public\n        view\n        returns (uint256)\n    {\n        uint256 totalValue;\n        \n        for (uint i = 0; i < _tokens.length; i++) {\n            totalValue += checkTokenValueETH(_tokens[i], _amounts[i]);\n        }\n        \n        return totalValue;\n    }\n    \n    /**\n     * @dev Internal function to calculate the output from one ETH swap.\n    */\n    function calcOutputEth(address _token, uint256 _value)\n        internal\n        view\n        returns (uint256, address[] memory)\n    {\n        address[] memory path = new address[](2);\n        path[0] = WETH;\n        path[1] = _token;\n        \n        uint256[] memory expected = uniswapRouter.getAmountsOut(_value, path);\n        \n        return (expected[1], path);\n    }\n\n    /**\n     * @dev Internal function to calculate the output from one token swap.\n    */\n    function calcOutputToken(address[] memory _path, uint256 _value)\n        internal\n        view\n        returns (uint256[] memory expected)\n    {\n        \n        expected = uniswapRouter.getAmountsOut(_value, _path);\n        return expected;\n    }\n\n    /**\n     * @dev Execute ETH swap for each token in portfolio.\n    */\n    function makeETHSwap(address[] memory _tokens, uint256[] memory _percent)\n        external\n        payable\n        returns (uint256[] memory)\n    {\n        uint256 valueToSend = applyFeeETH(msg.value, _tokens.length);\n        uint256 totalPercent;\n        uint256[] memory outputs = new uint256[](_tokens.length);\n        address[] memory path = new address[](2);\n        path[0] = WETH;\n\n        for (uint256 i = 0; i < _tokens.length; i++) {\n            totalPercent += _percent[i];\n            require(totalPercent <= 100, 'Exceeded 100%');\n\n            path[1] = _tokens[i];\n\n            uint256 swapVal = valueToSend.mul(_percent[i]).div(100);\n            uint256[] memory expected = uniswapRouter.getAmountsOut(swapVal, path);\n            uint256[] memory out = uniswapRouter.swapExactETHForTokens{value: swapVal}(\n                expected[1],\n                path,\n                msg.sender,\n                block.timestamp\n            );\n            outputs[i] = out[1];\n        }\n\n        require(totalPercent == 100, 'Percent not 100');\n        \n        return outputs;\n    }\n\n    /**\n     * @dev Execute token swap for each token in portfolio.\n    */\n    function makeTokenSwap(\n        address[] memory _tokens,\n        uint256[] memory _percent,\n        address _base,\n        uint256 _total) external payable\n    {\n        require(msg.value == _tokens.length.mul(1000000000000000), 'Sent improper fee');\n        IERC20 token = IERC20(_base);\n        uint256 totalPercent = 0;\n\n        token.safeTransferFrom(msg.sender, address(this), _total);\n\n        require(token.approve(address(uniswapRouter), _total), 'Uniswap approval failed');\n        \n        address[] memory path = new address[](3);\n        path[0] = _base;\n        path[1] = WETH;\n        \n        for (uint256 i = 0; i < _tokens.length; i++) {\n            totalPercent += _percent[i];\n\n            require(totalPercent <= 100, 'Exceeded 100');\n            \n            path[2] = _tokens[i];            \n            uint256 swapVal = _total.mul(_percent[i]).div(100);\n            uint256[] memory expected = uniswapRouter.getAmountsOut(swapVal, path);\n\n            uniswapRouter.swapExactTokensForTokens(\n                expected[0],\n                0,\n                path,\n                msg.sender,\n                block.timestamp + 15\n            );\n        }\n\n        require(totalPercent == 100, 'Percent not 100');\n    }\n    \n    /**\n     * @dev Swap tokens for ETH\n    */\n    function makeTokenSwapForETH(\n        address[] memory _tokens,\n        uint256[] memory _amounts,\n        address sender\n    ) external {\n        address[] memory path = new address[](2);\n        path[1] = WETH;\n        for (uint i = 0; i < _tokens.length; i++) {\n            path[0] = _tokens[i];\n            IERC20 token = IERC20(_tokens[i]);\n            token.transferFrom(msg.sender, address(this), _amounts[i]);\n            token.approve(address(uniswapRouter), _amounts[i]);\n            uint256[] memory expected = uniswapRouter.getAmountsOut(_amounts[i], path);\n            uniswapRouter.swapExactTokensForETH(expected[0], expected[1], path, sender, block.timestamp);\n        }\n    }\n\n    /**\n     * @dev Apply fee to total value amount for ETH swap.\n    */\n    function applyFeeETH(uint256 _amount, uint256 _numberOfTokens)\n        private\n        view\n        returns (uint256 valueToSend)\n    {\n        valueToSend = _amount - _numberOfTokens.mul(data.swapFee);\n\n        return valueToSend;\n    }\n\n    /**\n     * @dev Owner only function to update contract fees.\n    */\n    function updateFee(\n        uint64 newFee\n    ) public onlyOwner returns (bool) {\n        data.swapFee = newFee;\n        \n        return true;\n    }\n\n    /**\n     * @dev Returns current app fees.\n    */\n    function getCurrentFee()\n        external\n        view\n        returns (\n            uint64\n        )\n    {\n        return data.swapFee;\n    }\n\n    /**\n     * @dev Owner only function to change contract owner.\n    */\n    function changeOwner(address newOwner) external onlyOwner returns (bool) {\n        data.owner = uint160(newOwner);\n        return true;\n    }\n\n    /**\n     * @dev Return owner address\n    */\n    function getOwner() external view returns (address) {\n        return address(data.owner);\n    }\n\n    /**\n     * @dev Owner only function to retreive ETH fees\n    */\n    function retrieveEthFees() external onlyOwner {\n        address payable receiver = payable(address(data.owner));\n        receiver.transfer(address(this).balance);\n    }\n\n}",
  "sourcePath": "/Users/dperk6/qfinance/qswap/contracts/MultiswapCM.sol",
  "compiler": {
    "name": "solc",
    "version": "0.8.4+commit.c7e474f2.Emscripten.clang"
  },
  "schemaVersion": "3.4.1",
  "updatedAt": "2021-07-28T03:10:43.115Z",
  "devdoc": {
    "kind": "dev",
    "methods": {
      "changeOwner(address)": {
        "details": "Owner only function to change contract owner."
      },
      "checkAllValue(address[],uint256[])": {
        "details": "Checks and returns ETH value of portfolio."
      },
      "checkOutputsEth(address[],uint256[],uint256)": {
        "details": "Checks and returns expected output fom ETH swap."
      },
      "checkOutputsToken(address[],uint256[],address,uint256)": {
        "details": "Checks and returns expected output from token swap."
      },
      "checkTokenValueETH(address,uint256)": {
        "details": "Checks and returns ETH value of token amount."
      },
      "constructor": {
        "details": "Constructor sets values for Uniswap, WETH, and fee data  These values are the immutable state values for Uniswap and WETH."
      },
      "getCurrentFee()": {
        "details": "Returns current app fees."
      },
      "getOwner()": {
        "details": "Return owner address"
      },
      "makeETHSwap(address[],uint256[])": {
        "details": "Execute ETH swap for each token in portfolio."
      },
      "makeTokenSwap(address[],uint256[],address,uint256)": {
        "details": "Execute token swap for each token in portfolio."
      },
      "makeTokenSwapForETH(address[],uint256[],address)": {
        "details": "Swap tokens for ETH"
      },
      "retrieveEthFees()": {
        "details": "Owner only function to retreive ETH fees"
      },
      "updateFee(uint64)": {
        "details": "Owner only function to update contract fees."
      }
    },
    "version": 1
  },
  "userdoc": {
    "kind": "user",
    "methods": {},
    "version": 1
  }
}